{
  "_format": "hh-sol-artifact-1",
  "contractName": "DynamicSocialToken",
  "sourceName": "contracts/tokens/DynamicSocialToken.sol",
  "abi": [
    {
      "inputs": [],
      "stateMutability": "nonpayable",
      "type": "constructor"
    },
    {
      "inputs": [],
      "name": "AddressHasToken",
      "type": "error"
    },
    {
      "inputs": [
        {
          "internalType": "address",
          "name": "sender",
          "type": "address"
        },
        {
          "internalType": "uint256",
          "name": "tokenId",
          "type": "uint256"
        },
        {
          "internalType": "address",
          "name": "owner",
          "type": "address"
        }
      ],
      "name": "ERC721IncorrectOwner",
      "type": "error"
    },
    {
      "inputs": [
        {
          "internalType": "address",
          "name": "operator",
          "type": "address"
        },
        {
          "internalType": "uint256",
          "name": "tokenId",
          "type": "uint256"
        }
      ],
      "name": "ERC721InsufficientApproval",
      "type": "error"
    },
    {
      "inputs": [
        {
          "internalType": "address",
          "name": "approver",
          "type": "address"
        }
      ],
      "name": "ERC721InvalidApprover",
      "type": "error"
    },
    {
      "inputs": [
        {
          "internalType": "address",
          "name": "operator",
          "type": "address"
        }
      ],
      "name": "ERC721InvalidOperator",
      "type": "error"
    },
    {
      "inputs": [
        {
          "internalType": "address",
          "name": "owner",
          "type": "address"
        }
      ],
      "name": "ERC721InvalidOwner",
      "type": "error"
    },
    {
      "inputs": [
        {
          "internalType": "address",
          "name": "receiver",
          "type": "address"
        }
      ],
      "name": "ERC721InvalidReceiver",
      "type": "error"
    },
    {
      "inputs": [
        {
          "internalType": "address",
          "name": "sender",
          "type": "address"
        }
      ],
      "name": "ERC721InvalidSender",
      "type": "error"
    },
    {
      "inputs": [
        {
          "internalType": "uint256",
          "name": "tokenId",
          "type": "uint256"
        }
      ],
      "name": "ERC721NonexistentToken",
      "type": "error"
    },
    {
      "inputs": [],
      "name": "EmptyFeeder",
      "type": "error"
    },
    {
      "inputs": [],
      "name": "EmptyInterval",
      "type": "error"
    },
    {
      "inputs": [],
      "name": "IntervalNotSet",
      "type": "error"
    },
    {
      "inputs": [],
      "name": "InvalidAddress",
      "type": "error"
    },
    {
      "inputs": [],
      "name": "InvalidTokenId",
      "type": "error"
    },
    {
      "inputs": [
        {
          "internalType": "address",
          "name": "owner",
          "type": "address"
        }
      ],
      "name": "OwnableInvalidOwner",
      "type": "error"
    },
    {
      "inputs": [
        {
          "internalType": "address",
          "name": "account",
          "type": "address"
        }
      ],
      "name": "OwnableUnauthorizedAccount",
      "type": "error"
    },
    {
      "inputs": [],
      "name": "TokenNotMinted",
      "type": "error"
    },
    {
      "anonymous": false,
      "inputs": [
        {
          "indexed": true,
          "internalType": "address",
          "name": "owner",
          "type": "address"
        },
        {
          "indexed": true,
          "internalType": "address",
          "name": "approved",
          "type": "address"
        },
        {
          "indexed": true,
          "internalType": "uint256",
          "name": "tokenId",
          "type": "uint256"
        }
      ],
      "name": "Approval",
      "type": "event"
    },
    {
      "anonymous": false,
      "inputs": [
        {
          "indexed": true,
          "internalType": "address",
          "name": "owner",
          "type": "address"
        },
        {
          "indexed": true,
          "internalType": "address",
          "name": "operator",
          "type": "address"
        },
        {
          "indexed": false,
          "internalType": "bool",
          "name": "approved",
          "type": "bool"
        }
      ],
      "name": "ApprovalForAll",
      "type": "event"
    },
    {
      "anonymous": false,
      "inputs": [
        {
          "indexed": false,
          "internalType": "uint256",
          "name": "_fromTokenId",
          "type": "uint256"
        },
        {
          "indexed": false,
          "internalType": "uint256",
          "name": "_toTokenId",
          "type": "uint256"
        }
      ],
      "name": "BatchMetadataUpdate",
      "type": "event"
    },
    {
      "anonymous": false,
      "inputs": [
        {
          "indexed": false,
          "internalType": "uint256",
          "name": "_tokenId",
          "type": "uint256"
        }
      ],
      "name": "MetadataUpdate",
      "type": "event"
    },
    {
      "anonymous": false,
      "inputs": [
        {
          "indexed": true,
          "internalType": "uint256",
          "name": "tokenId",
          "type": "uint256"
        },
        {
          "indexed": true,
          "internalType": "uint256",
          "name": "exp",
          "type": "uint256"
        }
      ],
      "name": "OffChainFeed",
      "type": "event"
    },
    {
      "anonymous": false,
      "inputs": [
        {
          "indexed": true,
          "internalType": "address",
          "name": "previousOwner",
          "type": "address"
        },
        {
          "indexed": true,
          "internalType": "address",
          "name": "newOwner",
          "type": "address"
        }
      ],
      "name": "OwnershipTransferred",
      "type": "event"
    },
    {
      "anonymous": false,
      "inputs": [
        {
          "indexed": true,
          "internalType": "uint256",
          "name": "length",
          "type": "uint256"
        }
      ],
      "name": "ReadInterval",
      "type": "event"
    },
    {
      "anonymous": false,
      "inputs": [
        {
          "indexed": true,
          "internalType": "address",
          "name": "from",
          "type": "address"
        },
        {
          "indexed": true,
          "internalType": "address",
          "name": "to",
          "type": "address"
        },
        {
          "indexed": true,
          "internalType": "uint256",
          "name": "tokenId",
          "type": "uint256"
        }
      ],
      "name": "Transfer",
      "type": "event"
    },
    {
      "inputs": [],
      "name": "NAME",
      "outputs": [
        {
          "internalType": "string",
          "name": "",
          "type": "string"
        }
      ],
      "stateMutability": "view",
      "type": "function"
    },
    {
      "inputs": [
        {
          "internalType": "address",
          "name": "to",
          "type": "address"
        },
        {
          "internalType": "uint256",
          "name": "tokenId",
          "type": "uint256"
        }
      ],
      "name": "approve",
      "outputs": [],
      "stateMutability": "nonpayable",
      "type": "function"
    },
    {
      "inputs": [
        {
          "internalType": "address",
          "name": "owner",
          "type": "address"
        }
      ],
      "name": "balanceOf",
      "outputs": [
        {
          "internalType": "uint256",
          "name": "",
          "type": "uint256"
        }
      ],
      "stateMutability": "view",
      "type": "function"
    },
    {
      "inputs": [
        {
          "internalType": "uint256",
          "name": "tokenId",
          "type": "uint256"
        }
      ],
      "name": "getApproved",
      "outputs": [
        {
          "internalType": "address",
          "name": "",
          "type": "address"
        }
      ],
      "stateMutability": "view",
      "type": "function"
    },
    {
      "inputs": [
        {
          "internalType": "uint256",
          "name": "tokenId",
          "type": "uint256"
        }
      ],
      "name": "getDstData",
      "outputs": [
        {
          "internalType": "uint256",
          "name": "lv",
          "type": "uint256"
        },
        {
          "internalType": "uint256",
          "name": "exp",
          "type": "uint256"
        },
        {
          "internalType": "string",
          "name": "url",
          "type": "string"
        }
      ],
      "stateMutability": "view",
      "type": "function"
    },
    {
      "inputs": [],
      "name": "getDstIntervalLength",
      "outputs": [
        {
          "internalType": "uint256",
          "name": "",
          "type": "uint256"
        }
      ],
      "stateMutability": "view",
      "type": "function"
    },
    {
      "inputs": [
        {
          "internalType": "uint256",
          "name": "index",
          "type": "uint256"
        }
      ],
      "name": "getDstIntervals",
      "outputs": [
        {
          "internalType": "uint256",
          "name": "lv",
          "type": "uint256"
        },
        {
          "internalType": "uint256",
          "name": "left",
          "type": "uint256"
        },
        {
          "internalType": "uint256",
          "name": "right",
          "type": "uint256"
        },
        {
          "internalType": "string",
          "name": "url",
          "type": "string"
        }
      ],
      "stateMutability": "view",
      "type": "function"
    },
    {
      "inputs": [
        {
          "internalType": "address",
          "name": "user",
          "type": "address"
        }
      ],
      "name": "getDstTokenId",
      "outputs": [
        {
          "internalType": "uint256",
          "name": "",
          "type": "uint256"
        }
      ],
      "stateMutability": "view",
      "type": "function"
    },
    {
      "inputs": [],
      "name": "getFeeder",
      "outputs": [
        {
          "internalType": "address",
          "name": "",
          "type": "address"
        }
      ],
      "stateMutability": "view",
      "type": "function"
    },
    {
      "inputs": [
        {
          "internalType": "address",
          "name": "owner",
          "type": "address"
        },
        {
          "internalType": "address",
          "name": "operator",
          "type": "address"
        }
      ],
      "name": "isApprovedForAll",
      "outputs": [
        {
          "internalType": "bool",
          "name": "",
          "type": "bool"
        }
      ],
      "stateMutability": "view",
      "type": "function"
    },
    {
      "inputs": [
        {
          "internalType": "address",
          "name": "to",
          "type": "address"
        },
        {
          "internalType": "uint256",
          "name": "initialExp",
          "type": "uint256"
        }
      ],
      "name": "mint",
      "outputs": [
        {
          "internalType": "uint256",
          "name": "",
          "type": "uint256"
        }
      ],
      "stateMutability": "nonpayable",
      "type": "function"
    },
    {
      "inputs": [],
      "name": "name",
      "outputs": [
        {
          "internalType": "string",
          "name": "",
          "type": "string"
        }
      ],
      "stateMutability": "view",
      "type": "function"
    },
    {
      "inputs": [
        {
          "internalType": "address",
          "name": "_owner",
          "type": "address"
        },
        {
          "internalType": "uint256",
          "name": "amount",
          "type": "uint256"
        }
      ],
      "name": "offChainFeed",
      "outputs": [],
      "stateMutability": "nonpayable",
      "type": "function"
    },
    {
      "inputs": [],
      "name": "owner",
      "outputs": [
        {
          "internalType": "address",
          "name": "",
          "type": "address"
        }
      ],
      "stateMutability": "view",
      "type": "function"
    },
    {
      "inputs": [
        {
          "internalType": "uint256",
          "name": "tokenId",
          "type": "uint256"
        }
      ],
      "name": "ownerOf",
      "outputs": [
        {
          "internalType": "address",
          "name": "",
          "type": "address"
        }
      ],
      "stateMutability": "view",
      "type": "function"
    },
    {
      "inputs": [
        {
          "components": [
            {
              "internalType": "uint256",
              "name": "lv",
              "type": "uint256"
            },
            {
              "internalType": "uint256",
              "name": "left",
              "type": "uint256"
            },
            {
              "internalType": "uint256",
              "name": "right",
              "type": "uint256"
            },
            {
              "internalType": "string",
              "name": "url",
              "type": "string"
            }
          ],
          "internalType": "struct NovaroDataTypes.DstInterval[]",
          "name": "intervals",
          "type": "tuple[]"
        }
      ],
      "name": "readInterval",
      "outputs": [],
      "stateMutability": "nonpayable",
      "type": "function"
    },
    {
      "inputs": [],
      "name": "renounceOwnership",
      "outputs": [],
      "stateMutability": "nonpayable",
      "type": "function"
    },
    {
      "inputs": [
        {
          "internalType": "address",
          "name": "from",
          "type": "address"
        },
        {
          "internalType": "address",
          "name": "to",
          "type": "address"
        },
        {
          "internalType": "uint256",
          "name": "tokenId",
          "type": "uint256"
        }
      ],
      "name": "safeTransferFrom",
      "outputs": [],
      "stateMutability": "nonpayable",
      "type": "function"
    },
    {
      "inputs": [
        {
          "internalType": "address",
          "name": "from",
          "type": "address"
        },
        {
          "internalType": "address",
          "name": "to",
          "type": "address"
        },
        {
          "internalType": "uint256",
          "name": "tokenId",
          "type": "uint256"
        },
        {
          "internalType": "bytes",
          "name": "data",
          "type": "bytes"
        }
      ],
      "name": "safeTransferFrom",
      "outputs": [],
      "stateMutability": "nonpayable",
      "type": "function"
    },
    {
      "inputs": [
        {
          "internalType": "address",
          "name": "operator",
          "type": "address"
        },
        {
          "internalType": "bool",
          "name": "approved",
          "type": "bool"
        }
      ],
      "name": "setApprovalForAll",
      "outputs": [],
      "stateMutability": "nonpayable",
      "type": "function"
    },
    {
      "inputs": [
        {
          "internalType": "address",
          "name": "feeder",
          "type": "address"
        }
      ],
      "name": "setFeeder",
      "outputs": [],
      "stateMutability": "nonpayable",
      "type": "function"
    },
    {
      "inputs": [
        {
          "internalType": "bytes4",
          "name": "interfaceId",
          "type": "bytes4"
        }
      ],
      "name": "supportsInterface",
      "outputs": [
        {
          "internalType": "bool",
          "name": "",
          "type": "bool"
        }
      ],
      "stateMutability": "view",
      "type": "function"
    },
    {
      "inputs": [],
      "name": "symbol",
      "outputs": [
        {
          "internalType": "string",
          "name": "",
          "type": "string"
        }
      ],
      "stateMutability": "view",
      "type": "function"
    },
    {
      "inputs": [
        {
          "internalType": "uint256",
          "name": "tokenId",
          "type": "uint256"
        }
      ],
      "name": "tokenURI",
      "outputs": [
        {
          "internalType": "string",
          "name": "",
          "type": "string"
        }
      ],
      "stateMutability": "view",
      "type": "function"
    },
    {
      "inputs": [
        {
          "internalType": "address",
          "name": "from",
          "type": "address"
        },
        {
          "internalType": "address",
          "name": "to",
          "type": "address"
        },
        {
          "internalType": "uint256",
          "name": "tokenId",
          "type": "uint256"
        }
      ],
      "name": "transferFrom",
      "outputs": [],
      "stateMutability": "nonpayable",
      "type": "function"
    },
    {
      "inputs": [
        {
          "internalType": "address",
          "name": "newOwner",
          "type": "address"
        }
      ],
      "name": "transferOwnership",
      "outputs": [],
      "stateMutability": "nonpayable",
      "type": "function"
    }
  ],
  "bytecode": "0x608060405260016009553480156200001657600080fd5b50336040518060400160405280601481526020017f44796e616d696320536f6369616c20546f6b656e000000000000000000000000815250604051806040016040528060038152602001621114d560ea1b81525081600090816200007b9190620001c7565b5060016200008a8282620001c7565b5050506001600160a01b038116620000bc57604051631e4fbdf760e01b81526000600482015260240160405180910390fd5b620000c781620000ce565b5062000293565b600780546001600160a01b038381166001600160a01b0319831681179093556040519116919082907f8be0079c531659141344cd1fd0a4f28419497f9722a3daafe3b4186f6b6457e090600090a35050565b634e487b7160e01b600052604160045260246000fd5b600181811c908216806200014b57607f821691505b6020821081036200016c57634e487b7160e01b600052602260045260246000fd5b50919050565b601f821115620001c2576000816000526020600020601f850160051c810160208610156200019d5750805b601f850160051c820191505b81811015620001be57828155600101620001a9565b5050505b505050565b81516001600160401b03811115620001e357620001e362000120565b620001fb81620001f4845462000136565b8462000172565b602080601f8311600181146200023357600084156200021a5750858301515b600019600386901b1c1916600185901b178555620001be565b600085815260208120601f198616915b82811015620002645788860151825594840194600190910190840162000243565b5085821015620002835787850151600019600388901b60f8161c191681555b5050505050600190811b01905550565b611c6280620002a36000396000f3fe608060405234801561001057600080fd5b506004361061018e5760003560e01c8063715018a6116100de578063ae8efa0e11610097578063cd81afee11610071578063cd81afee14610390578063e985e9c5146103a3578063f2fde38b146103b6578063f3407187146103c957600080fd5b8063ae8efa0e14610348578063b88d4fde1461036a578063c87b56dd1461037d57600080fd5b8063715018a6146102b857806384634348146102c05780638da5cb5b146102e957806395d89b41146102fa578063a22cb46514610302578063a3f4df7e1461031557600080fd5b806323b872dd1161014b57806340c10f191161012557806340c10f191461026c57806342842e0e1461027f5780636352211e1461029257806370a08231146102a557600080fd5b806323b872dd1461023557806326c07ae21461024857806333aded371461025957600080fd5b806301ffc9a71461019357806304d745bb146101bb57806306fdde03146101d0578063081812fc146101e5578063095ea7b31461021057806319d1b8d214610223575b600080fd5b6101a66101a13660046115e3565b6103ec565b60405190151581526020015b60405180910390f35b6101ce6101c936600461161c565b610417565b005b6101d8610441565b6040516101b2919061167d565b6101f86101f3366004611690565b6104d3565b6040516001600160a01b0390911681526020016101b2565b6101ce61021e3660046116a9565b6104fc565b600c545b6040519081526020016101b2565b6101ce6102433660046116d3565b61050b565b6008546001600160a01b03166101f8565b6101ce6102673660046116a9565b61059b565b61022761027a3660046116a9565b610652565b6101ce61028d3660046116d3565b6106ed565b6101f86102a0366004611690565b61070d565b6102276102b336600461161c565b610718565b6101ce610760565b6102276102ce36600461161c565b6001600160a01b03166000908152600a602052604090205490565b6007546001600160a01b03166101f8565b6101d8610774565b6101ce61031036600461170f565b610783565b6101d860405180604001604052806014815260200173223cb730b6b4b19029b7b1b4b0b6102a37b5b2b760611b81525081565b61035b610356366004611690565b61078e565b6040516101b29392919061174b565b6101ce61037836600461183b565b610868565b6101d861038b366004611690565b610880565b6101ce61039e3660046118b7565b610925565b6101a66103b13660046119e6565b610a09565b6101ce6103c436600461161c565b610a37565b6103dc6103d7366004611690565b610a75565b6040516101b29493929190611a19565b60006001600160e01b03198216632483248360e11b1480610411575061041182610b50565b92915050565b61041f610ba0565b600880546001600160a01b0319166001600160a01b0392909216919091179055565b60606000805461045090611a48565b80601f016020809104026020016040519081016040528092919081815260200182805461047c90611a48565b80156104c95780601f1061049e576101008083540402835291602001916104c9565b820191906000526020600020905b8154815290600101906020018083116104ac57829003601f168201915b5050505050905090565b60006104de82610bcd565b506000828152600460205260409020546001600160a01b0316610411565b610507828233610c06565b5050565b6001600160a01b03821661053a57604051633250574960e11b8152600060048201526024015b60405180910390fd5b6000610547838333610c13565b9050836001600160a01b0316816001600160a01b031614610595576040516364283d7b60e01b81526001600160a01b0380861660048301526024820184905282166044820152606401610531565b50505050565b6008546001600160a01b031615806105be57506008546001600160a01b03163314155b156105dc576040516323640c8d60e11b815260040160405180910390fd5b6001600160a01b0382166000908152600a602052604090205460018111610616576040516307ed98ed60e31b815260040160405180910390fd5b6106208183610c2a565b604051829082907fa583483898f6355b1a8efa42648591147f7919203e8ff06ea7a2e7887f758cd290600090a3505050565b60006001600160a01b03831661067b5760405163e6c4247b60e01b815260040160405180910390fd5b600061068684610718565b11156106a5576040516335d9874960e11b815260040160405180910390fd5b60098054600101908190556106bb908490610d0b565b6009546001600160a01b0384166000908152600a602052604090208190556106e39083610c2a565b5060095492915050565b61070883838360405180602001604052806000815250610868565b505050565b600061041182610bcd565b60006001600160a01b038216610744576040516322718ad960e21b815260006004820152602401610531565b506001600160a01b031660009081526003602052604090205490565b610768610ba0565b6107726000610d25565b565b60606001805461045090611a48565b610507338383610d77565b6000818152600b602052604081208054829160609183036107c25760405163d03ce9df60e01b815260040160405180910390fd5b8054600182015460028301805481906107da90611a48565b80601f016020809104026020016040519081016040528092919081815260200182805461080690611a48565b80156108535780601f1061082857610100808354040283529160200191610853565b820191906000526020600020905b81548152906001019060200180831161083657829003601f168201915b50505050509050935093509350509193909250565b61087384848461050b565b6105953385858585610e16565b6000818152600b602052604090206002018054606091906108a090611a48565b80601f01602080910402602001604051908101604052809291908181526020018280546108cc90611a48565b80156109195780601f106108ee57610100808354040283529160200191610919565b820191906000526020600020905b8154815290600101906020018083116108fc57829003601f168201915b50505050509050919050565b61092d610ba0565b610939600c6000611531565b8051600081900361095d5760405163709e2d0960e01b815260040160405180910390fd5b60005b818110156109d957600c83828151811061097c5761097c611a82565b6020908102919091018101518254600181810185556000948552938390208251600490920201908155918101519282019290925560408201516002820155606082015160038201906109ce9082611ae0565b505050600101610960565b5060405181907fc754cbba85ac4e6d2c8f7a275dc5a3a1c35f530d1f4a00a19115bc24304c657990600090a25050565b6001600160a01b03918216600090815260056020908152604080832093909416825291909152205460ff1690565b610a3f610ba0565b6001600160a01b038116610a6957604051631e4fbdf760e01b815260006004820152602401610531565b610a7281610d25565b50565b600080600060606000600c8681548110610a9157610a91611a82565b9060005260206000209060040201905080600001548160010154826002015483600301808054610ac090611a48565b80601f0160208091040260200160405190810160405280929190818152602001828054610aec90611a48565b8015610b395780601f10610b0e57610100808354040283529160200191610b39565b820191906000526020600020905b815481529060010190602001808311610b1c57829003601f168201915b505050505090509450945094509450509193509193565b60006001600160e01b031982166380ac58cd60e01b1480610b8157506001600160e01b03198216635b5e139f60e01b145b8061041157506301ffc9a760e01b6001600160e01b0319831614610411565b6007546001600160a01b031633146107725760405163118cdaa760e01b8152336004820152602401610531565b6000818152600260205260408120546001600160a01b03168061041157604051637e27328960e01b815260048101849052602401610531565b6107088383836001610f41565b6000610c20848484611047565b90505b9392505050565b6000828152600b6020526040812060018101805491928492610c4d908490611bb6565b90915550610c5c905083611140565b82600060028201610c6d8482611ae0565b508391905055505061070883826002018054610c8890611a48565b80601f0160208091040260200160405190810160405280929190818152602001828054610cb490611a48565b8015610d015780601f10610cd657610100808354040283529160200191610d01565b820191906000526020600020905b815481529060010190602001808311610ce457829003601f168201915b505050505061139d565b6105078282604051806020016040528060008152506113ed565b600780546001600160a01b038381166001600160a01b0319831681179093556040519116919082907f8be0079c531659141344cd1fd0a4f28419497f9722a3daafe3b4186f6b6457e090600090a35050565b6001600160a01b038216610da957604051630b61174360e31b81526001600160a01b0383166004820152602401610531565b6001600160a01b03838116600081815260056020908152604080832094871680845294825291829020805460ff191686151590811790915591519182527f17307eab39ab6107e8899845ad3d59bd9653f200f220920489ca2b5937696c31910160405180910390a3505050565b6001600160a01b0383163b15610f3a57604051630a85bd0160e11b81526001600160a01b0384169063150b7a0290610e58908890889087908790600401611bc9565b6020604051808303816000875af1925050508015610e93575060408051601f3d908101601f19168201909252610e9091810190611bfc565b60015b610efc573d808015610ec1576040519150601f19603f3d011682016040523d82523d6000602084013e610ec6565b606091505b508051600003610ef457604051633250574960e11b81526001600160a01b0385166004820152602401610531565b805181602001fd5b6001600160e01b03198116630a85bd0160e11b14610f3857604051633250574960e11b81526001600160a01b0385166004820152602401610531565b505b5050505050565b8080610f5557506001600160a01b03821615155b15611017576000610f6584610bcd565b90506001600160a01b03831615801590610f915750826001600160a01b0316816001600160a01b031614155b8015610fa45750610fa28184610a09565b155b15610fcd5760405163a9fbf51f60e01b81526001600160a01b0384166004820152602401610531565b81156110155783856001600160a01b0316826001600160a01b03167f8c5be1e5ebec7d5bd14f71427d1e84f3dd0314c0f7b2291e5b200ac8c7c3b92560405160405180910390a45b505b5050600090815260046020526040902080546001600160a01b0319166001600160a01b0392909216919091179055565b6000828152600260205260408120546001600160a01b039081169083161561107457611074818486611405565b6001600160a01b038116156110b257611091600085600080610f41565b6001600160a01b038116600090815260036020526040902080546000190190555b6001600160a01b038516156110e1576001600160a01b0385166000908152600360205260409020805460010190555b60008481526002602052604080822080546001600160a01b0319166001600160a01b0389811691821790925591518793918516917fddf252ad1be2c89b69c2b068fc378daa952ba7f163c4a11628f55a4df523b3ef91a4949350505050565b600c5460009060609080830361116957604051632cc258d760e21b815260040160405180910390fd5b6000848152600b6020526040812060010154905b611188600184611c19565b8110156112a9576000600c82815481106111a4576111a4611a82565b90600052602060002090600402016040518060800160405290816000820154815260200160018201548152602001600282015481526020016003820180546111eb90611a48565b80601f016020809104026020016040519081016040528092919081815260200182805461121790611a48565b80156112645780601f1061123957610100808354040283529160200191611264565b820191906000526020600020905b81548152906001019060200180831161124757829003601f168201915b5050505050815250509050806020015183101580156112865750806040015183105b156112a05780516060909101519097909650945050505050565b5060010161117d565b50600c6112b7600184611c19565b815481106112c7576112c7611a82565b6000918252602090912060049091020154600c6112e5600185611c19565b815481106112f5576112f5611a82565b906000526020600020906004020160030180805461131290611a48565b80601f016020809104026020016040519081016040528092919081815260200182805461133e90611a48565b801561138b5780601f106113605761010080835404028352916020019161138b565b820191906000526020600020905b81548152906001019060200180831161136e57829003601f168201915b50505050509050935093505050915091565b60008281526006602052604090206113b58282611ae0565b506040518281527ff8e1a15aba9398e019f0b49df1a4fde98ee17ae345cb5f6b5e2c27f5033e8ce79060200160405180910390a15050565b6113f78383611469565b610708336000858585610e16565b6114108383836114ce565b610708576001600160a01b03831661143e57604051637e27328960e01b815260048101829052602401610531565b60405163177e802f60e01b81526001600160a01b038316600482015260248101829052604401610531565b6001600160a01b03821661149357604051633250574960e11b815260006004820152602401610531565b60006114a183836000610c13565b90506001600160a01b03811615610708576040516339e3563760e11b815260006004820152602401610531565b60006001600160a01b03831615801590610c205750826001600160a01b0316846001600160a01b0316148061150857506115088484610a09565b80610c205750506000908152600460205260409020546001600160a01b03908116911614919050565b5080546000825560040290600052602060002090810190610a7291905b8082111561157f57600080825560018201819055600282018190556115766003830182611583565b5060040161154e565b5090565b50805461158f90611a48565b6000825580601f1061159f575050565b601f016020900490600052602060002090810190610a7291905b8082111561157f57600081556001016115b9565b6001600160e01b031981168114610a7257600080fd5b6000602082840312156115f557600080fd5b8135610c23816115cd565b80356001600160a01b038116811461161757600080fd5b919050565b60006020828403121561162e57600080fd5b610c2382611600565b6000815180845260005b8181101561165d57602081850181015186830182015201611641565b506000602082860101526020601f19601f83011685010191505092915050565b602081526000610c236020830184611637565b6000602082840312156116a257600080fd5b5035919050565b600080604083850312156116bc57600080fd5b6116c583611600565b946020939093013593505050565b6000806000606084860312156116e857600080fd5b6116f184611600565b92506116ff60208501611600565b9150604084013590509250925092565b6000806040838503121561172257600080fd5b61172b83611600565b91506020830135801515811461174057600080fd5b809150509250929050565b83815282602082015260606040820152600061176a6060830184611637565b95945050505050565b634e487b7160e01b600052604160045260246000fd5b6040516080810167ffffffffffffffff811182821017156117ac576117ac611773565b60405290565b604051601f8201601f1916810167ffffffffffffffff811182821017156117db576117db611773565b604052919050565b600067ffffffffffffffff8311156117fd576117fd611773565b611810601f8401601f19166020016117b2565b905082815283838301111561182457600080fd5b828260208301376000602084830101529392505050565b6000806000806080858703121561185157600080fd5b61185a85611600565b935061186860208601611600565b925060408501359150606085013567ffffffffffffffff81111561188b57600080fd5b8501601f8101871361189c57600080fd5b6118ab878235602084016117e3565b91505092959194509250565b600060208083850312156118ca57600080fd5b823567ffffffffffffffff808211156118e257600080fd5b818501915085601f8301126118f657600080fd5b81358181111561190857611908611773565b8060051b6119178582016117b2565b918252838101850191858101908984111561193157600080fd5b86860192505b838310156119d95782358581111561194f5760008081fd5b86016080818c03601f19018113156119675760008081fd5b61196f611789565b828a01358152604080840135828c01526060808501358284015292840135928984111561199c5760008081fd5b83850194508e603f8601126119b357600093508384fd5b6119c38f8d8701358488016117e3565b9083015250845250509186019190860190611937565b9998505050505050505050565b600080604083850312156119f957600080fd5b611a0283611600565b9150611a1060208401611600565b90509250929050565b848152836020820152826040820152608060608201526000611a3e6080830184611637565b9695505050505050565b600181811c90821680611a5c57607f821691505b602082108103611a7c57634e487b7160e01b600052602260045260246000fd5b50919050565b634e487b7160e01b600052603260045260246000fd5b601f821115610708576000816000526020600020601f850160051c81016020861015611ac15750805b601f850160051c820191505b81811015610f3857828155600101611acd565b815167ffffffffffffffff811115611afa57611afa611773565b611b0e81611b088454611a48565b84611a98565b602080601f831160018114611b435760008415611b2b5750858301515b600019600386901b1c1916600185901b178555610f38565b600085815260208120601f198616915b82811015611b7257888601518255948401946001909101908401611b53565b5085821015611b905787850151600019600388901b60f8161c191681555b5050505050600190811b01905550565b634e487b7160e01b600052601160045260246000fd5b8082018082111561041157610411611ba0565b6001600160a01b0385811682528416602082015260408101839052608060608201819052600090611a3e90830184611637565b600060208284031215611c0e57600080fd5b8151610c23816115cd565b8181038181111561041157610411611ba056fea26469706673582212204441bdbfae3dcd105eabdf7899f2d90c1ea7c908fafa8a24d645eddc0bc2650a64736f6c63430008180033",
  "linkReferences": {},
  "deployedLinkReferences": {}
}