{
  "_format": "hh-sol-artifact-1",
  "contractName": "FollowerPassToken",
  "sourceName": "contracts/tokens/FollowerPassToken.sol",
  "abi": [
    {
      "inputs": [
        {
          "internalType": "string",
          "name": "name",
          "type": "string"
        },
        {
          "internalType": "string",
          "name": "symbol",
          "type": "string"
        },
        {
          "internalType": "address",
          "name": "owner",
          "type": "address"
        }
      ],
      "stateMutability": "payable",
      "type": "constructor"
    },
    {
      "inputs": [
        {
          "internalType": "address",
          "name": "spender",
          "type": "address"
        },
        {
          "internalType": "uint256",
          "name": "allowance",
          "type": "uint256"
        },
        {
          "internalType": "uint256",
          "name": "needed",
          "type": "uint256"
        }
      ],
      "name": "ERC20InsufficientAllowance",
      "type": "error"
    },
    {
      "inputs": [
        {
          "internalType": "address",
          "name": "sender",
          "type": "address"
        },
        {
          "internalType": "uint256",
          "name": "balance",
          "type": "uint256"
        },
        {
          "internalType": "uint256",
          "name": "needed",
          "type": "uint256"
        }
      ],
      "name": "ERC20InsufficientBalance",
      "type": "error"
    },
    {
      "inputs": [
        {
          "internalType": "address",
          "name": "approver",
          "type": "address"
        }
      ],
      "name": "ERC20InvalidApprover",
      "type": "error"
    },
    {
      "inputs": [
        {
          "internalType": "address",
          "name": "receiver",
          "type": "address"
        }
      ],
      "name": "ERC20InvalidReceiver",
      "type": "error"
    },
    {
      "inputs": [
        {
          "internalType": "address",
          "name": "sender",
          "type": "address"
        }
      ],
      "name": "ERC20InvalidSender",
      "type": "error"
    },
    {
      "inputs": [
        {
          "internalType": "address",
          "name": "spender",
          "type": "address"
        }
      ],
      "name": "ERC20InvalidSpender",
      "type": "error"
    },
    {
      "inputs": [],
      "name": "InvalidAddress",
      "type": "error"
    },
    {
      "anonymous": false,
      "inputs": [
        {
          "indexed": true,
          "internalType": "address",
          "name": "owner",
          "type": "address"
        },
        {
          "indexed": true,
          "internalType": "address",
          "name": "spender",
          "type": "address"
        },
        {
          "indexed": false,
          "internalType": "uint256",
          "name": "value",
          "type": "uint256"
        }
      ],
      "name": "Approval",
      "type": "event"
    },
    {
      "anonymous": false,
      "inputs": [
        {
          "indexed": true,
          "internalType": "address",
          "name": "pool",
          "type": "address"
        },
        {
          "indexed": true,
          "internalType": "address",
          "name": "buyer",
          "type": "address"
        },
        {
          "indexed": true,
          "internalType": "uint256",
          "name": "amount",
          "type": "uint256"
        }
      ],
      "name": "BuyFollowerPassToken",
      "type": "event"
    },
    {
      "anonymous": false,
      "inputs": [
        {
          "indexed": true,
          "internalType": "address",
          "name": "seller",
          "type": "address"
        },
        {
          "indexed": true,
          "internalType": "address",
          "name": "pool",
          "type": "address"
        },
        {
          "indexed": true,
          "internalType": "uint256",
          "name": "amount",
          "type": "uint256"
        }
      ],
      "name": "SellFollowerPassToken",
      "type": "event"
    },
    {
      "anonymous": false,
      "inputs": [
        {
          "indexed": true,
          "internalType": "address",
          "name": "from",
          "type": "address"
        },
        {
          "indexed": true,
          "internalType": "address",
          "name": "to",
          "type": "address"
        },
        {
          "indexed": false,
          "internalType": "uint256",
          "name": "value",
          "type": "uint256"
        }
      ],
      "name": "Transfer",
      "type": "event"
    },
    {
      "inputs": [],
      "name": "NAME",
      "outputs": [
        {
          "internalType": "string",
          "name": "",
          "type": "string"
        }
      ],
      "stateMutability": "view",
      "type": "function"
    },
    {
      "inputs": [
        {
          "internalType": "address",
          "name": "owner",
          "type": "address"
        },
        {
          "internalType": "address",
          "name": "spender",
          "type": "address"
        }
      ],
      "name": "allowance",
      "outputs": [
        {
          "internalType": "uint256",
          "name": "",
          "type": "uint256"
        }
      ],
      "stateMutability": "view",
      "type": "function"
    },
    {
      "inputs": [
        {
          "internalType": "address",
          "name": "spender",
          "type": "address"
        },
        {
          "internalType": "uint256",
          "name": "value",
          "type": "uint256"
        }
      ],
      "name": "approve",
      "outputs": [
        {
          "internalType": "bool",
          "name": "",
          "type": "bool"
        }
      ],
      "stateMutability": "nonpayable",
      "type": "function"
    },
    {
      "inputs": [
        {
          "internalType": "address",
          "name": "account",
          "type": "address"
        }
      ],
      "name": "balanceOf",
      "outputs": [
        {
          "internalType": "uint256",
          "name": "",
          "type": "uint256"
        }
      ],
      "stateMutability": "view",
      "type": "function"
    },
    {
      "inputs": [
        {
          "internalType": "address",
          "name": "_pool",
          "type": "address"
        },
        {
          "internalType": "uint256",
          "name": "_amount",
          "type": "uint256"
        }
      ],
      "name": "buy",
      "outputs": [],
      "stateMutability": "payable",
      "type": "function"
    },
    {
      "inputs": [],
      "name": "decimals",
      "outputs": [
        {
          "internalType": "uint8",
          "name": "",
          "type": "uint8"
        }
      ],
      "stateMutability": "view",
      "type": "function"
    },
    {
      "inputs": [],
      "name": "name",
      "outputs": [
        {
          "internalType": "string",
          "name": "",
          "type": "string"
        }
      ],
      "stateMutability": "view",
      "type": "function"
    },
    {
      "inputs": [
        {
          "internalType": "address",
          "name": "_pool",
          "type": "address"
        },
        {
          "internalType": "uint256",
          "name": "_amount",
          "type": "uint256"
        }
      ],
      "name": "sell",
      "outputs": [],
      "stateMutability": "nonpayable",
      "type": "function"
    },
    {
      "inputs": [],
      "name": "symbol",
      "outputs": [
        {
          "internalType": "string",
          "name": "",
          "type": "string"
        }
      ],
      "stateMutability": "view",
      "type": "function"
    },
    {
      "inputs": [],
      "name": "totalSupply",
      "outputs": [
        {
          "internalType": "uint256",
          "name": "",
          "type": "uint256"
        }
      ],
      "stateMutability": "view",
      "type": "function"
    },
    {
      "inputs": [
        {
          "internalType": "address",
          "name": "to",
          "type": "address"
        },
        {
          "internalType": "uint256",
          "name": "value",
          "type": "uint256"
        }
      ],
      "name": "transfer",
      "outputs": [
        {
          "internalType": "bool",
          "name": "",
          "type": "bool"
        }
      ],
      "stateMutability": "nonpayable",
      "type": "function"
    },
    {
      "inputs": [
        {
          "internalType": "address",
          "name": "from",
          "type": "address"
        },
        {
          "internalType": "address",
          "name": "to",
          "type": "address"
        },
        {
          "internalType": "uint256",
          "name": "value",
          "type": "uint256"
        }
      ],
      "name": "transferFrom",
      "outputs": [
        {
          "internalType": "bool",
          "name": "",
          "type": "bool"
        }
      ],
      "stateMutability": "nonpayable",
      "type": "function"
    }
  ],
  "bytecode": "0x608060405260405162000e2538038062000e258339810160408190526200002691620002a8565b82826003620000368382620003c6565b506004620000458282620003c6565b5050506200006281670de0b6b3a76400006200006b60201b60201c565b505050620004ba565b6001600160a01b0382166200009b5760405163ec442f0560e01b8152600060048201526024015b60405180910390fd5b620000a960008383620000ad565b5050565b6001600160a01b038316620000dc578060026000828254620000d0919062000492565b90915550620001509050565b6001600160a01b03831660009081526020819052604090205481811015620001315760405163391434e360e21b81526001600160a01b0385166004820152602481018290526044810183905260640162000092565b6001600160a01b03841660009081526020819052604090209082900390555b6001600160a01b0382166200016e576002805482900390556200018d565b6001600160a01b03821660009081526020819052604090208054820190555b816001600160a01b0316836001600160a01b03167fddf252ad1be2c89b69c2b068fc378daa952ba7f163c4a11628f55a4df523b3ef83604051620001d391815260200190565b60405180910390a3505050565b634e487b7160e01b600052604160045260246000fd5b600082601f8301126200020857600080fd5b81516001600160401b0380821115620002255762000225620001e0565b604051601f8301601f19908116603f01168101908282118183101715620002505762000250620001e0565b81604052838152602092508660208588010111156200026e57600080fd5b600091505b8382101562000292578582018301518183018401529082019062000273565b6000602085830101528094505050505092915050565b600080600060608486031215620002be57600080fd5b83516001600160401b0380821115620002d657600080fd5b620002e487838801620001f6565b94506020860151915080821115620002fb57600080fd5b506200030a86828701620001f6565b604086015190935090506001600160a01b03811681146200032a57600080fd5b809150509250925092565b600181811c908216806200034a57607f821691505b6020821081036200036b57634e487b7160e01b600052602260045260246000fd5b50919050565b601f821115620003c1576000816000526020600020601f850160051c810160208610156200039c5750805b601f850160051c820191505b81811015620003bd57828155600101620003a8565b5050505b505050565b81516001600160401b03811115620003e257620003e2620001e0565b620003fa81620003f3845462000335565b8462000371565b602080601f831160018114620004325760008415620004195750858301515b600019600386901b1c1916600185901b178555620003bd565b600085815260208120601f198616915b82811015620004635788860151825594840194600190910190840162000442565b5085821015620004825787850151600019600388901b60f8161c191681555b5050505050600190811b01905550565b80820180821115620004b457634e487b7160e01b600052601160045260246000fd5b92915050565b61095b80620004ca6000396000f3fe6080604052600436106100a75760003560e01c806370a082311161006457806370a082311461018457806395d89b41146101ba578063a3f4df7e146101cf578063a9059cbb1461020d578063cce7ec131461022d578063dd62ed3e1461024057600080fd5b806306fdde03146100ac578063095ea7b3146100d757806318160ddd1461010757806323b872dd14610126578063313ce567146101465780636c197ff514610162575b600080fd5b3480156100b857600080fd5b506100c1610286565b6040516100ce91906107a4565b60405180910390f35b3480156100e357600080fd5b506100f76100f236600461080f565b610318565b60405190151581526020016100ce565b34801561011357600080fd5b506002545b6040519081526020016100ce565b34801561013257600080fd5b506100f7610141366004610839565b610332565b34801561015257600080fd5b50604051601281526020016100ce565b34801561016e57600080fd5b5061018261017d36600461080f565b610356565b005b34801561019057600080fd5b5061011861019f366004610875565b6001600160a01b031660009081526020819052604090205490565b3480156101c657600080fd5b506100c16103bb565b3480156101db57600080fd5b506100c1604051806040016040528060128152602001712337b63637bbb2b92830b9b9902a37b5b2b760711b81525081565b34801561021957600080fd5b506100f761022836600461080f565b6103ca565b61018261023b36600461080f565b6103d8565b34801561024c57600080fd5b5061011861025b366004610897565b6001600160a01b03918216600090815260016020908152604080832093909416825291909152205490565b606060038054610295906108ca565b80601f01602080910402602001604051908101604052809291908181526020018280546102c1906108ca565b801561030e5780601f106102e35761010080835404028352916020019161030e565b820191906000526020600020905b8154815290600101906020018083116102f157829003601f168201915b5050505050905090565b6000336103268185856104b6565b60019150505b92915050565b6000336103408582856104c8565b61034b858585610546565b506001949350505050565b6001600160a01b03821661037d5760405163e6c4247b60e01b815260040160405180910390fd5b61038782826103ca565b506040518190309033907f5533e00c6a6bb36fe95c7c9798e05fd426fc3c7f438fb0b896f1a66d2731a86290600090a45050565b606060048054610295906108ca565b600033610326818585610546565b6001600160a01b0382166103ff5760405163e6c4247b60e01b815260040160405180910390fd5b6040516000906001600160a01b038416903480156108fc029184818181858888f193505050509050806104795760405162461bcd60e51b815260206004820152601c60248201527f4661696c656420746f2073656e6420657468657220746f20706f6f6c0000000060448201526064015b60405180910390fd5b604051829033906001600160a01b038616907fcaaeedf613c8ea934468db0b7d5220504ca74313c79fe6651b3cd17176c971e090600090a4505050565b6104c383838360016105a5565b505050565b6001600160a01b038381166000908152600160209081526040808320938616835292905220546000198114610540578181101561053157604051637dc7a0d960e11b81526001600160a01b03841660048201526024810182905260448101839052606401610470565b610540848484840360006105a5565b50505050565b6001600160a01b03831661057057604051634b637e8f60e11b815260006004820152602401610470565b6001600160a01b03821661059a5760405163ec442f0560e01b815260006004820152602401610470565b6104c383838361067a565b6001600160a01b0384166105cf5760405163e602df0560e01b815260006004820152602401610470565b6001600160a01b0383166105f957604051634a1406b160e11b815260006004820152602401610470565b6001600160a01b038085166000908152600160209081526040808320938716835292905220829055801561054057826001600160a01b0316846001600160a01b03167f8c5be1e5ebec7d5bd14f71427d1e84f3dd0314c0f7b2291e5b200ac8c7c3b9258460405161066c91815260200190565b60405180910390a350505050565b6001600160a01b0383166106a557806002600082825461069a9190610904565b909155506107179050565b6001600160a01b038316600090815260208190526040902054818110156106f85760405163391434e360e21b81526001600160a01b03851660048201526024810182905260448101839052606401610470565b6001600160a01b03841660009081526020819052604090209082900390555b6001600160a01b03821661073357600280548290039055610752565b6001600160a01b03821660009081526020819052604090208054820190555b816001600160a01b0316836001600160a01b03167fddf252ad1be2c89b69c2b068fc378daa952ba7f163c4a11628f55a4df523b3ef8360405161079791815260200190565b60405180910390a3505050565b60006020808352835180602085015260005b818110156107d2578581018301518582016040015282016107b6565b506000604082860101526040601f19601f8301168501019250505092915050565b80356001600160a01b038116811461080a57600080fd5b919050565b6000806040838503121561082257600080fd5b61082b836107f3565b946020939093013593505050565b60008060006060848603121561084e57600080fd5b610857846107f3565b9250610865602085016107f3565b9150604084013590509250925092565b60006020828403121561088757600080fd5b610890826107f3565b9392505050565b600080604083850312156108aa57600080fd5b6108b3836107f3565b91506108c1602084016107f3565b90509250929050565b600181811c908216806108de57607f821691505b6020821081036108fe57634e487b7160e01b600052602260045260246000fd5b50919050565b8082018082111561032c57634e487b7160e01b600052601160045260246000fdfea2646970667358221220fae2df07702e88d542373b543647b0f09854aa8378a617c2fde8cbfd260c8e6264736f6c63430008180033",
  "linkReferences": {},
  "deployedLinkReferences": {}
}