{
  "_format": "hh-sol-artifact-1",
  "contractName": "NovaroClient",
  "sourceName": "contracts/NovaroClient.sol",
  "abi": [
    {
      "inputs": [
        {
          "internalType": "address",
          "name": "_pool",
          "type": "address"
        }
      ],
      "stateMutability": "nonpayable",
      "type": "constructor"
    },
    {
      "inputs": [],
      "name": "InvalidDST",
      "type": "error"
    },
    {
      "inputs": [],
      "name": "InvalidERC6551Registry",
      "type": "error"
    },
    {
      "inputs": [],
      "name": "InvalidSocialOracle",
      "type": "error"
    },
    {
      "inputs": [],
      "name": "InvalidTokenOwner",
      "type": "error"
    },
    {
      "inputs": [
        {
          "internalType": "address",
          "name": "owner",
          "type": "address"
        }
      ],
      "name": "OwnableInvalidOwner",
      "type": "error"
    },
    {
      "inputs": [
        {
          "internalType": "address",
          "name": "account",
          "type": "address"
        }
      ],
      "name": "OwnableUnauthorizedAccount",
      "type": "error"
    },
    {
      "inputs": [],
      "name": "Within24HourPeriod",
      "type": "error"
    },
    {
      "anonymous": false,
      "inputs": [
        {
          "indexed": true,
          "internalType": "address",
          "name": "owner",
          "type": "address"
        },
        {
          "indexed": true,
          "internalType": "address",
          "name": "boundAccount",
          "type": "address"
        }
      ],
      "name": "AccountAlreadyBound",
      "type": "event"
    },
    {
      "anonymous": false,
      "inputs": [
        {
          "indexed": true,
          "internalType": "address",
          "name": "owner",
          "type": "address"
        },
        {
          "indexed": true,
          "internalType": "address",
          "name": "boundAccount",
          "type": "address"
        }
      ],
      "name": "CreateAccount",
      "type": "event"
    },
    {
      "anonymous": false,
      "inputs": [
        {
          "indexed": true,
          "internalType": "address",
          "name": "admin",
          "type": "address"
        },
        {
          "indexed": true,
          "internalType": "contract FollowerPassCommunity",
          "name": "community",
          "type": "address"
        }
      ],
      "name": "CreateCommunityToken",
      "type": "event"
    },
    {
      "anonymous": false,
      "inputs": [
        {
          "indexed": true,
          "internalType": "address",
          "name": "previousOwner",
          "type": "address"
        },
        {
          "indexed": true,
          "internalType": "address",
          "name": "newOwner",
          "type": "address"
        }
      ],
      "name": "OwnershipTransferred",
      "type": "event"
    },
    {
      "inputs": [],
      "name": "NAME",
      "outputs": [
        {
          "internalType": "string",
          "name": "",
          "type": "string"
        }
      ],
      "stateMutability": "view",
      "type": "function"
    },
    {
      "inputs": [
        {
          "internalType": "address",
          "name": "implementation",
          "type": "address"
        },
        {
          "internalType": "uint256",
          "name": "chainId",
          "type": "uint256"
        },
        {
          "internalType": "address",
          "name": "tokenContract",
          "type": "address"
        },
        {
          "internalType": "uint256",
          "name": "tokenId",
          "type": "uint256"
        },
        {
          "internalType": "uint256",
          "name": "salt",
          "type": "uint256"
        },
        {
          "internalType": "bytes",
          "name": "initData",
          "type": "bytes"
        }
      ],
      "name": "createOrFetchAccount",
      "outputs": [
        {
          "internalType": "address",
          "name": "",
          "type": "address"
        }
      ],
      "stateMutability": "nonpayable",
      "type": "function"
    },
    {
      "inputs": [
        {
          "internalType": "string",
          "name": "chain_id",
          "type": "string"
        },
        {
          "internalType": "string",
          "name": "underlying_asset_symbol",
          "type": "string"
        },
        {
          "internalType": "string",
          "name": "share_token_name",
          "type": "string"
        },
        {
          "internalType": "string",
          "name": "share_token_symbol",
          "type": "string"
        },
        {
          "internalType": "string",
          "name": "community_name",
          "type": "string"
        },
        {
          "internalType": "string",
          "name": "community_description",
          "type": "string"
        },
        {
          "internalType": "string",
          "name": "community_source_id",
          "type": "string"
        }
      ],
      "name": "deployCommunityToken",
      "outputs": [
        {
          "internalType": "address",
          "name": "",
          "type": "address"
        }
      ],
      "stateMutability": "nonpayable",
      "type": "function"
    },
    {
      "inputs": [
        {
          "internalType": "address",
          "name": "_owner",
          "type": "address"
        }
      ],
      "name": "getBoundAccount",
      "outputs": [
        {
          "internalType": "address",
          "name": "",
          "type": "address"
        }
      ],
      "stateMutability": "view",
      "type": "function"
    },
    {
      "inputs": [],
      "name": "getCommunities",
      "outputs": [
        {
          "components": [
            {
              "internalType": "address",
              "name": "admin",
              "type": "address"
            },
            {
              "internalType": "string",
              "name": "chainId",
              "type": "string"
            },
            {
              "internalType": "address",
              "name": "underlying_token_address",
              "type": "address"
            },
            {
              "internalType": "string",
              "name": "community_name",
              "type": "string"
            },
            {
              "internalType": "string",
              "name": "community_description",
              "type": "string"
            },
            {
              "internalType": "string",
              "name": "community_logo_source_id",
              "type": "string"
            },
            {
              "internalType": "string",
              "name": "community_share_token_name",
              "type": "string"
            },
            {
              "internalType": "string",
              "name": "community_share_token_symbol",
              "type": "string"
            },
            {
              "internalType": "address",
              "name": "community_token",
              "type": "address"
            }
          ],
          "internalType": "struct NovaroDataTypes.CommunityTokenData[]",
          "name": "",
          "type": "tuple[]"
        }
      ],
      "stateMutability": "view",
      "type": "function"
    },
    {
      "inputs": [],
      "name": "getCommunitiesCount",
      "outputs": [
        {
          "internalType": "uint256",
          "name": "",
          "type": "uint256"
        }
      ],
      "stateMutability": "view",
      "type": "function"
    },
    {
      "inputs": [],
      "name": "getDynamicSocialToken",
      "outputs": [
        {
          "internalType": "address",
          "name": "",
          "type": "address"
        }
      ],
      "stateMutability": "view",
      "type": "function"
    },
    {
      "inputs": [],
      "name": "getRegistry",
      "outputs": [
        {
          "internalType": "address",
          "name": "",
          "type": "address"
        }
      ],
      "stateMutability": "view",
      "type": "function"
    },
    {
      "inputs": [
        {
          "internalType": "address",
          "name": "_owner",
          "type": "address"
        }
      ],
      "name": "getSystemIdentifier",
      "outputs": [
        {
          "internalType": "string",
          "name": "",
          "type": "string"
        }
      ],
      "stateMutability": "view",
      "type": "function"
    },
    {
      "inputs": [],
      "name": "getTokens",
      "outputs": [
        {
          "components": [
            {
              "internalType": "address",
              "name": "deployer",
              "type": "address"
            },
            {
              "internalType": "address",
              "name": "boundAccount",
              "type": "address"
            },
            {
              "internalType": "address",
              "name": "token",
              "type": "address"
            },
            {
              "internalType": "string",
              "name": "name",
              "type": "string"
            },
            {
              "internalType": "string",
              "name": "symbol",
              "type": "string"
            },
            {
              "internalType": "string",
              "name": "sourceId",
              "type": "string"
            },
            {
              "internalType": "string",
              "name": "des",
              "type": "string"
            }
          ],
          "internalType": "struct NovaroDataTypes.FollowerPassTokenData[]",
          "name": "",
          "type": "tuple[]"
        }
      ],
      "stateMutability": "view",
      "type": "function"
    },
    {
      "inputs": [],
      "name": "offChainFeed",
      "outputs": [],
      "stateMutability": "nonpayable",
      "type": "function"
    },
    {
      "inputs": [],
      "name": "owner",
      "outputs": [
        {
          "internalType": "address",
          "name": "",
          "type": "address"
        }
      ],
      "stateMutability": "view",
      "type": "function"
    },
    {
      "inputs": [
        {
          "internalType": "address",
          "name": "_community",
          "type": "address"
        },
        {
          "components": [
            {
              "internalType": "address",
              "name": "deployer",
              "type": "address"
            },
            {
              "internalType": "address",
              "name": "boundAccount",
              "type": "address"
            },
            {
              "internalType": "address",
              "name": "token",
              "type": "address"
            },
            {
              "internalType": "string",
              "name": "name",
              "type": "string"
            },
            {
              "internalType": "string",
              "name": "symbol",
              "type": "string"
            },
            {
              "internalType": "string",
              "name": "sourceId",
              "type": "string"
            },
            {
              "internalType": "string",
              "name": "des",
              "type": "string"
            }
          ],
          "internalType": "struct NovaroDataTypes.FollowerPassTokenData",
          "name": "_token",
          "type": "tuple"
        }
      ],
      "name": "recordToken",
      "outputs": [],
      "stateMutability": "nonpayable",
      "type": "function"
    },
    {
      "inputs": [],
      "name": "renounceOwnership",
      "outputs": [],
      "stateMutability": "nonpayable",
      "type": "function"
    },
    {
      "inputs": [
        {
          "internalType": "address",
          "name": "_dst",
          "type": "address"
        }
      ],
      "name": "setDynamicSocialToken",
      "outputs": [],
      "stateMutability": "nonpayable",
      "type": "function"
    },
    {
      "inputs": [
        {
          "internalType": "address",
          "name": "_registry",
          "type": "address"
        }
      ],
      "name": "setRegistry",
      "outputs": [],
      "stateMutability": "nonpayable",
      "type": "function"
    },
    {
      "inputs": [
        {
          "internalType": "address",
          "name": "_socialOracle",
          "type": "address"
        }
      ],
      "name": "setSocialOracle",
      "outputs": [],
      "stateMutability": "nonpayable",
      "type": "function"
    },
    {
      "inputs": [
        {
          "internalType": "address",
          "name": "_tokenAddressProvider",
          "type": "address"
        }
      ],
      "name": "setTokenAddressProvider",
      "outputs": [],
      "stateMutability": "nonpayable",
      "type": "function"
    },
    {
      "inputs": [
        {
          "internalType": "address",
          "name": "newOwner",
          "type": "address"
        }
      ],
      "name": "transferOwnership",
      "outputs": [],
      "stateMutability": "nonpayable",
      "type": "function"
    }
  ],
  "bytecode": "0x6080346100d457601f620059dc38819003918201601f19168301916001600160401b038311848410176100d9578084926020946040528339810103126100d457516001600160a01b0390818116908190036100d45733156100bb576000549060018060a01b0319913383821617600055604051933391167f8be0079c531659141344cd1fd0a4f28419497f9722a3daafe3b4186f6b6457e0600080a3816008541617600855339060015416176001556158ec9081620000f08239f35b604051631e4fbdf760e01b815260006004820152602490fd5b600080fd5b634e487b7160e01b600052604160045260246000fdfe60a08060405260043610156200001457600080fd5b60006080526080513560e01c908163148bf9571462001939575080633e06a0e014620018ef5780635ab1bd5314620018c3578063715018a6146200186157806375bdf6311462001809578063820839e71462000a2057806384439edf14620009d65780638da5cb5b14620009a95780638dd3beb7146200092a578063a3f4df7e14620008ab578063a91ee0dc1462000861578063aa6ca808146200067e578063b4697f901462000652578063c17ab63c1462000608578063c251b56514620003ca578063ca0dc1311462000207578063d530febe14620001c6578063f2fde38b14620001315763fb801200146200010a57600080fd5b346200012b576080513660031901126200012b576020600354604051908152f35b60805180fd5b346200012b5760203660031901126200012b576200014e62001ab5565b6200015862002425565b6001600160a01b03908116908115620001ac57600054826001600160601b0360a01b821617600055167f8be0079c531659141344cd1fd0a4f28419497f9722a3daafe3b4186f6b6457e0600080a360805180f35b604051631e4fbdf760e01b81526080516004820152602490fd5b346200012b5760203660031901126200012b5760206001600160a01b0380620001ee62001ab5565b1660805152600682526040608051205416604051908152f35b346200012b576003196040368201126200012b576200022562001ab5565b602435916001600160401b03908184116200012b5760e09084360301126200012b5760405192620002568462001b70565b620002648160040162001acc565b8452620002746024820162001acc565b6020850152620002876044820162001acc565b604085015260648101358281116200012b57620002ab906004369184010162001bf8565b606085015260848101358281116200012b57620002cf906004369184010162001bf8565b608085015260a48101358281116200012b57620002f3906004369184010162001bf8565b60a085015260c48101359182116200012b57600462000316923692010162001bf8565b60c083015260018060a01b03166080515260046020526200033d8160406080512062001f57565b60025490600160401b821015620003b25760018201806002558210156200039a5760076200039492600260805152027f405787fa12a823e0f2b7631cc41b3ba8828b3321ca811111fa75cd3aa3bb5ace0162001f57565b60805180f35b634e487b7160e01b6080515260326004526024608051fd5b634e487b7160e01b6080515260416004526024608051fd5b346200012b576080513660031901126200012b5760038054620003ed8162001f3f565b91620003fd604051938462001b8c565b81835260209182840180926003608051527fc2575a0e9e593c00f959f8c92f12db2869c3395a3b0502d05e2516446f71f85b90608051925b8484106200054c57604080518881528951818a0181905260805192600582901b83018101918a918c9085015b8287106200046f5785850386f35b909192938280600192603f19898203018552875190610120916200052f6200051c62000508620004f4620004e0620004c08b8060a01b03988988511689528a88015190808c8b015289019062001ae1565b88604088015116604089015260608088015190898303908a015262001ae1565b608080870151908883039089015262001ae1565b60a080860151908783039088015262001ae1565b60c080850151908683039087015262001ae1565b60e083015184820360e086015262001ae1565b926101008092015116910152960192019601959291909262000461565b60098760019260409a999a51620005638162001b53565b848060a01b038088541682526200057c86890162001c56565b848301528060028901541660408301526200059987890162001c56565b6060830152620005ac6004890162001c56565b6080830152620005bf6005890162001c56565b60a0830152620005d26006890162001c56565b60c0830152620005e56007890162001c56565b60e083015260088801541661010082015281520193019301929196959662000435565b346200012b5760203660031901126200012b576200062562001ab5565b6200062f62002425565b60018060a01b03166001600160601b0360a01b600b541617600b55608051608051f35b346200012b576080513660031901126200012b576009546040516001600160a01b039091168152602090f35b346200012b576080513660031901126200012b5760028054620006a18162001f3f565b91620006b1604051938462001b8c565b81835260209182840180926002608051527f405787fa12a823e0f2b7631cc41b3ba8828b3321ca811111fa75cd3aa3bb5ace90608051925b848410620007cc57604080518881528951818a0181905260805192600582901b83018101918a918c9085015b828710620007235785850386f35b909192938280620007bb600193603f198a82030186528851858060a01b03808251168352808583015116858401526040820151166040830152620007a7620007936200077f606060e0818601519187015260e086019062001ae1565b608080850151908683039087015262001ae1565b60a080840151908583039086015262001ae1565b9160c0809201519181840391015262001ae1565b960192019601959291909262000715565b60078760019260409a999a51620007e38162001b70565b848060a01b038088541682528086890154168483015286880154166040820152620008116003880162001c56565b6060820152620008246004880162001c56565b6080820152620008376005880162001c56565b60a08201526200084a6006880162001c56565b60c0820152815201930193019291969596620006e9565b346200012b5760203660031901126200012b576200087e62001ab5565b6200088862002425565b60018060a01b03166001600160601b0360a01b600a541617600a55608051608051f35b346200012b576080513660031901126200012b5760405160408101908082106001600160401b0383111762000914576200091091604052600c81526b139bdd985c9bd0db1a595b9d60a21b602082015260405191829160208352602083019062001ae1565b0390f35b634e487b7160e01b600052604160045260246000fd5b346200012b5760c03660031901126200012b576200094762001ab5565b6001600160a01b036044358181168103620009a45760a435906001600160401b0382116200012b57602093620009866200099b93369060040162001b23565b92909160843591606435916024359062001d49565b60405191168152f35b600080fd5b346200012b576080513660031901126200012b57608051546040516001600160a01b039091168152602090f35b346200012b5760203660031901126200012b57620009f362001ab5565b620009fd62002425565b60018060a01b03166001600160601b0360a01b600c541617600c55608051608051f35b346200012b5760e03660031901126200012b576004356001600160401b0381116200012b5762000a5590369060040162001b23565b6024356001600160401b0381116200012b5762000a7790369060040162001b23565b6044356001600160401b0381116200012b5762000a9990369060040162001b23565b6064356001600160401b0381116200012b5762000abb90369060040162001b23565b9390946084356001600160401b0381116200012b5762000ae090369060040162001b23565b9060a4356001600160401b0381116200012b5762000b0390369060040162001b23565b9190926001600160401b0360c435116200012b5762000b61602062000b2e3660c43560040162001b23565b97909860018060a01b03600c541690604051809581948293636204891b60e11b8452876004850152602484019162001d28565b03915afa908115620017815760805191620017d3575b506001600160a01b038116156200178e5760015460808051339052600660205251604090819020549051916001600160a01b0391821691166001600160401b036133c4840190811190841117620003b257829162000c1b8f8f8f8f9062000c04916133c4620024538a396001600160a01b038b166133c48a0190815260e060208201819052019162001d28565b916133c48701830360406133c48901015262001d28565b9160606133c4850101523360806133c48501015260a06133c4840101523060c06133c4840101520390608051f09c8d1562001781578d9c604051809e600160a01b600190031633608051608051907f2a552e9fcc7c1032fbfd4e74bef5b47a6062218111854eac9609b2de83c269e491a362000c979062001b53565b8d339052369062000ca89262001bae565b60208d01526001600160a01b031660408c015262000cc99136919062001bae565b60608a0152369062000cdb9262001bae565b6080880152369062000ced9262001bae565b60a0860152369062000cff9262001bae565b60c0840152369062000d119262001bae565b60e08201526001600160a01b038216610100820152600354600160401b811015620003b25760018101806003558110156200039a5760036080515260018060a01b038251166001600160601b0360a01b600983027fc2575a0e9e593c00f959f8c92f12db2869c3395a3b0502d05e2516446f71f85b01541617600982027fc2575a0e9e593c00f959f8c92f12db2869c3395a3b0502d05e2516446f71f85b015560208201519283516001600160401b038111620003b25762000de86000805160206200583783398151915260098502015462001c19565b601f811162001721575b5060206001601f83111462001688578192939495608051926200167c575b50508160011b916000199060031b1c191617600080516020620058378339815191526009840201555b7fc2575a0e9e593c00f959f8c92f12db2869c3395a3b0502d05e2516446f71f85d600983020160018060a01b036040850151166001600160601b0360a01b82541617905560608301519283516001600160401b038111620003b25762000eb46000805160206200581783398151915260098602015462001c19565b601f81116200161c575b5060206001601f831114620015835781929394956080519262001577575b50508160011b916000199060031b1c191617600080516020620058178339815191526009850201555b60808101519283516001600160401b038111620003b25762000f3c6000805160206200585783398151915260098402015462001c19565b601f811162001517575b5060206001601f8311146200147e5781929394956080519262001472575b50508160011b916000199060031b1c191617600080516020620058578339815191526009830201555b60a08201519283516001600160401b038111620003b25762000fc46000805160206200587783398151915260098502015462001c19565b601f811162001412575b5060206001601f83111462001379578192939495608051926200136d575b50508160011b916000199060031b1c191617600080516020620058778339815191526009840201555b60c08301519283516001600160401b038111620003b2576200104c6000805160206200589783398151915260098602015462001c19565b601f81116200130d575b5060206001601f831114620012745781929394956080519262001268575b50508160011b916000199060031b1c191617600080516020620058978339815191526009850201555b7fc2575a0e9e593c00f959f8c92f12db2869c3395a3b0502d05e2516446f71f86260098402019260e08201519384516001600160401b038111620003b257620010e7825462001c19565b95601f871162001218575b6020965086906001601f84111462001185579180600994927fc2575a0e9e593c00f959f8c92f12db2869c3395a3b0502d05e2516446f71f86396946080519262001179575b50508160011b916000199060031b1c19161790555b6101009093015192020180546001600160a01b0319166001600160a01b0392831617905560405191168152f35b01519050898062001137565b90601f1983169184608051528860805120926080515b8181106200120057509260019285927fc2575a0e9e593c00f959f8c92f12db2869c3395a3b0502d05e2516446f71f86398966009989610620011e6575b505050811b0190556200114c565b015160001960f88460031b161c19169055898080620011d8565b92938a6001819287860151815501950193016200119b565b8260805152602060805120601f830160051c810197602084106200125d575b601f0160051c01965b8781106200124f5750620010f2565b608051815560010162001240565b909750879062001237565b01519050858062001074565b60008051602062005897833981519152600986020160805152602060805120906080515b601f1984168110620012f4575060019394959683601f19811610620012da575b505050811b01600080516020620058978339815191526009850201556200109d565b015160001960f88460031b161c19169055858080620012b8565b9091602060018192858b01518155019301910162001298565b60008051602062005897833981519152600986020160805152602060805120601f830160051c81016020841062001365575b601f830160051c820181106200135757505062001056565b60805181556001016200133f565b50806200133f565b01519050858062000fec565b60008051602062005877833981519152600985020160805152602060805120906080515b601f1984168110620013f9575060019394959683601f19811610620013df575b505050811b016000805160206200587783398151915260098402015562001015565b015160001960f88460031b161c19169055858080620013bd565b9091602060018192858b0151815501930191016200139d565b60008051602062005877833981519152600985020160805152602060805120601f830160051c8101602084106200146a575b601f830160051c820181106200145c57505062000fce565b608051815560010162001444565b508062001444565b01519050858062000f64565b60008051602062005857833981519152600984020160805152602060805120906080515b601f1984168110620014fe575060019394959683601f19811610620014e4575b505050811b016000805160206200585783398151915260098302015562000f8d565b015160001960f88460031b161c19169055858080620014c2565b9091602060018192858b015181550193019101620014a2565b60008051602062005857833981519152600984020160805152602060805120601f830160051c8101602084106200156f575b601f830160051c820181106200156157505062000f46565b608051815560010162001549565b508062001549565b01519050858062000edc565b60008051602062005817833981519152600986020160805152602060805120906080515b601f198416811062001603575060019394959683601f19811610620015e9575b505050811b016000805160206200581783398151915260098502015562000f05565b015160001960f88460031b161c19169055858080620015c7565b9091602060018192858b015181550193019101620015a7565b60008051602062005817833981519152600986020160805152602060805120601f830160051c81016020841062001674575b601f830160051c820181106200166657505062000ebe565b60805181556001016200164e565b50806200164e565b01519050858062000e10565b60008051602062005837833981519152600985020160805152602060805120906080515b601f198416811062001708575060019394959683601f19811610620016ee575b505050811b016000805160206200583783398151915260098402015562000e39565b015160001960f88460031b161c19169055858080620016cc565b9091602060018192858b015181550193019101620016ac565b60008051602062005837833981519152600985020160805152602060805120601f830160051c81016020841062001779575b601f830160051c820181106200176b57505062000df2565b608051815560010162001753565b508062001753565b6040513d608051823e3d90fd5b60405162461bcd60e51b815260206004820152601f60248201527f496e76616c696420756e6465726c79696e672061737365742073796d626f6c006044820152606490fd5b620017fa915060203d60201162001801575b620017f1818362001b8c565b81019062001d07565b8d62000b77565b503d620017e5565b346200012b5760203660031901126200012b576001600160a01b036200182e62001ab5565b16608051526005602052620009106200184c60406080512062001c56565b60405191829160208352602083019062001ae1565b346200012b576080513660031901126200012b576200187f62002425565b600080546001600160a01b0319811682556001600160a01b03167f8be0079c531659141344cd1fd0a4f28419497f9722a3daafe3b4186f6b6457e08280a360805180f35b346200012b576080513660031901126200012b57600a546040516001600160a01b039091168152602090f35b346200012b5760203660031901126200012b576200190c62001ab5565b6200191662002425565b60018060a01b03166001600160601b0360a01b6009541617600955608051608051f35b346200012b576080513660031901126200012b576009546001600160a01b039190821690811562001aa657503360805152602091600783526040608051205462015180810180911162001a8e57421062001a7c573360805152600783524260406080512055600b5416801562001a6a578260249160405192838092631f7f950d60e11b82523360048301525afa92831562001781576080519362001a34575b5050803b156200012b57604051916333aded3760e01b835233600484015260248301528160448160805193608051905af18015620017815762001a1b5760805180f35b6001600160401b038111620003b2576040528062000394565b9080929350813d831162001a62575b62001a4f818362001b8c565b810103126200012b5751908280620019d8565b503d62001a43565b604051630170bffd60e11b8152600490fd5b60405163cd7be42b60e01b8152600490fd5b634e487b7160e01b6080515260116004526024608051fd5b6320fe427160e21b8152600490fd5b600435906001600160a01b0382168203620009a457565b35906001600160a01b0382168203620009a457565b919082519283825260005b84811062001b0e575050826000602080949584010152601f8019910116010190565b60208183018101518483018201520162001aec565b9181601f84011215620009a4578235916001600160401b038311620009a45760208381860195010111620009a457565b61012081019081106001600160401b038211176200091457604052565b60e081019081106001600160401b038211176200091457604052565b90601f801991011681019081106001600160401b038211176200091457604052565b9291926001600160401b03821162000914576040519162001bda601f8201601f19166020018462001b8c565b829481845281830111620009a4578281602093846000960137010152565b9080601f83011215620009a45781602062001c169335910162001bae565b90565b90600182811c9216801562001c4b575b602083101462001c3557565b634e487b7160e01b600052602260045260246000fd5b91607f169162001c29565b9060405191826000825462001c6b8162001c19565b9081845260209460019160018116908160001462001ce3575060011462001ca0575b50505062001c9e9250038362001b8c565b565b600090815285812095935091905b81831062001cca57505062001c9e935082010138808062001c8d565b8554888401850152948501948794509183019162001cae565b9250505062001c9e94925060ff191682840152151560051b82010138808062001c8d565b90816020910312620009a457516001600160a01b0381168103620009a45790565b908060209392818452848401376000828201840152601f01601f1916010190565b9493919295336000526020956006875260018060a01b03604060002054168062001f0c5750600a546001600160a01b031693841562001efb576009546040516331a9108f60e11b8152600481018b9052908990829060249082906001600160a01b03165afa90811562001ebb5760009162001ed9575b50336001600160a01b039091160362001ec757879660009362001e2b926040519b8c998a98899763da7323b360e01b895260018060a01b03166004890152602488015260018060a01b031660448701526064860152608485015260c060a485015260c484019162001d28565b03925af191821562001ebb5760009262001e94575b5033600081815260069092526040822080546001600160a01b0319166001600160a01b038516908117909155917f14a8ec3fa88b43ee6d7a7a0e47e3468f408e39a1cf0be757bb6c81b94e2fdb9e9080a390565b81925062001eb3906006923d85116200180157620017f1818362001b8c565b919062001e40565b6040513d6000823e3d90fd5b60405163153e35b760e11b8152600490fd5b62001ef49150893d8b116200180157620017f1818362001b8c565b3862001dbf565b6040516246a29560e81b8152600490fd5b97505050505050505080337fbbbb9ffe5792d4ad2e6de72b841bd59303efce2d9aa93907e7c21b8f6dcf5489600080a390565b6001600160401b038111620009145760051b60200190565b60018060a01b039081835116906001600160601b0360a01b91828254161781556001928382019260209382858801511682825416179055600283019160408701511690825416179055600390818101926060860151918251946001600160401b039586811162000914578062001fce835462001c19565b95601f96878111620023cc575b508590878311600114620023655760009262002359575b505060001982881b1c191690881b1790555b6004810160808801518051908782116200091457819062002026845462001c19565b87811162002303575b5085908783116001146200229c5760009262002290575b505060001982881b1c191690881b1790555b6005810160a0880151805190878211620009145762002078835462001c19565b86811162002245575b508490868311600114620021d35791806006949260c09694600092620021c7575b5050600019828a1b1c1916908a1b1790555b019601519081519485116200091457620020cf875462001c19565b8381116200217c575b508092851160011462002112575093839491849260009562002106575b50501b92600019911b1c1916179055565b015193503880620020f5565b92919084601f1981168860005285600020956000905b8983831062002161575050501062002146575b50505050811b019055565b01519060f884600019921b161c19169055388080806200213b565b85870151895590970196948501948893509081019062002128565b87600052816000208480880160051c820192848910620021bd575b0160051c019087905b828110620021b0575050620020d8565b60008155018790620021a0565b9250819262002197565b015190503880620020a2565b899291601f1983169185600052876000209260005b898282106200222e5750509160c0979593918560069896941062002215575b505050811b019055620020b4565b0151600019838c1b60f8161c1916905538808062002207565b8385015186558e97909501949384019301620021e8565b83600052856000208780850160051c82019288861062002286575b0160051c01908a905b8281106200227957505062002081565b60008155018a9062002269565b9250819262002260565b01519050388062002046565b908a9350601f1983169185600052876000209260005b89828210620022ec5750508411620022d3575b505050811b01905562002058565b0151600019838a1b60f8161c19169055388080620022c5565b8385015186558e97909501949384019301620022b2565b90915083600052856000208780850160051c8201928886106200234f575b918c91869594930160051c01915b8281106200233f5750506200202f565b600081558594508c91016200232f565b9250819262002321565b01519050388062001ff2565b908a9350601f1983169185600052876000209260005b89828210620023b557505084116200239c575b505050811b01905562002004565b0151600019838a1b60f8161c191690553880806200238e565b8385015186558e979095019493840193016200237b565b909150600084600052866000208880860160051c8201938987106200241b575b918d9187969594930160051c01925b8381106200240c5750505062001fdb565b8281558695508d9101620023fb565b93508193620023ec565b6000546001600160a01b031633036200243a57565b60405163118cdaa760e01b8152336004820152602490fdfe60c080604052346200040a57620033c480380380916200002082856200040f565b833981019060e0818303126200040a578051916001600160a01b039081841684036200040a576020838101516001600160401b039491908581116200040a57836200006d9184016200044f565b926040830151908682116200040a57620000899184016200044f565b956200009860608401620004ba565b91620000a760808501620004ba565b96620000c460c0620000bc60a08801620004ba565b9601620004ba565b95805182811162000304576003546001928382811c92168015620003ff575b86831014620003e95781601f84931162000390575b508590601f831160011462000326576000926200031a575b505081831b916000199060031b1c1916176003555b8951918211620003045760049283548281811c91168015620002f9575b82821014620002e457601f81116200029a575b5088999a60009998995081601f85116001146200022857508896959493926000928492836200021c575b50501b916000199060031b1c19161790555b6200019c81620004cf565b901562000213575b60a0526080528160018060a01b0319971687600b541617600b55168560065416176006551683600a541617600a551690600c541617600c55604051612e2e908162000596823960805181818161049801528181611202015281816116d50152611ab2015260a051816112470152f35b506012620001a4565b0151925038806200017f565b98979695949391601f19831691856000528a6000209260005b8181106200028157508a9b5084909a999a1062000267575b505050811b01905562000191565b015160001960f88460031b161c1916905538808062000259565b8284015185558e9b5093860193928c01928c0162000241565b8460005281600020601f850160051c810191838610620002d9575b601f0160051c01905b818110620002cd575062000155565b600081558301620002be565b9091508190620002b5565b602285634e487b7160e01b6000525260246000fd5b90607f169062000142565b634e487b7160e01b600052604160045260246000fd5b01519050388062000110565b90849350601f198316916003600052876000209260005b898282106200037957505084116200035f575b505050811b0160035562000125565b015160001960f88460031b161c1916905538808062000350565b83850151865588979095019493840193016200033d565b909150600360005285600020601f840160051c810191878510620003de575b84939291601f87920160051c01915b828110620003ce575050620000f8565b60008155859450869101620003be565b9091508190620003af565b634e487b7160e01b600052602260045260246000fd5b91607f1691620000e3565b600080fd5b601f909101601f19168101906001600160401b038211908210176200030457604052565b6001600160401b0381116200030457601f01601f191660200190565b9080601f830112156200040a578151906200046a8262000433565b926200047a60405194856200040f565b828452602091602084830101116200040a5760005b838110620004a65750505060206000918301015290565b81810183015185820184015282016200048f565b51906001600160a01b03821682036200040a57565b6040805163313ce56760e01b60208201908152600482529293929181016001600160401b0381118282101762000304576040525160009384928392916001600160a01b03165afa3d156200058c573d906200052a8262000433565b916200053a60405193846200040f565b82523d84602084013e5b806200057f575b62000556575b508190565b6020818051810103126200057b576020015160ff811162000551576001925060ff1690565b8280fd5b506020815110156200054b565b6060906200054456fe608060405260043610156200001357600080fd5b6000803560e01c90816301e1d114146200151557816306fdde03146200144557816307a2d13a1462000d9c578163095ea7b3146200138d5781630a28a477146200136b57816318160ddd146200134c5781631e34c58514620012d257816323b872dd1462001290578163313ce567146200123157816338d52e0f14620011eb578163402d267d14620003935781634c1bc5ff1462000da25781634cdad5061462000d9c5781636e553f651462000cbc5781636e9960c31462000c9257816370a0823114620002f057816394b918de146200096757816394bf804d146200092c57816395d89b41146200080d578163997072f714620007ee578163a230c524146200025a578163a3f4df7e146200075f578163a9059cbb1462000728578163b3d7f6b91462000706578163b460af941462000672578163b688a3631462000466578163ba08765214620003c3578163c41bedb51462000399578163c63d75b61462000393578163c6e6f59214620001dc578163ce96cb771462000355578163ced72f871462000336578163d905777e14620002f0578163dd62ed3e146200029c578163e75c87e8146200025a578163e9fad8ee14620001e2575063ef8b30f714620001dc57600080fd5b62001698565b346200025757806003193601126200025757600554801562000243576000190160055533808252600d60205260408220805460ff1916905530907f386effb8d674ed40f80b9a3ad8d180749bd73ced30af7f7092e0324c4090d27d8380a380f35b634e487b7160e01b82526011600452602482fd5b80fd5b3462000257576020366003190112620002575760209060ff906040906001600160a01b036200028862001597565b168152600d84522054166040519015158152f35b34620002575760403660031901126200025757620002b962001597565b6040620002c5620015ae565b9260018060a01b03809316815260016020522091166000526020526020604060002054604051908152f35b3462000257576020366003190112620002575760206200032e6200031362001597565b6001600160a01b031660009081526020819052604090205490565b604051908152f35b3462000257578060031936011262000257576020600754604051908152f35b346200025757602036600319011262000257576020906200032e906040906001600160a01b036200038562001597565b168152808452205462001814565b620015c5565b3462000257578060031936011262000257576009546040516001600160a01b039091168152602090f35b346200025757620003d43662001660565b9192604060018060a01b0391828516808784519587167fcb2a3294e34578df242bc534fd343e857e150549c4dfc493d69aa7167743dd188580a481528060205220548085116200043c576020846200032e8786620004328262001814565b9384913362001b84565b632e52afbb60e21b82526001600160a01b0384166004830152602482018590526044820152606490fd5b3462000257578060031936011262000257576040516370a0823160e01b81523360048201526020906001600160a01b037f00000000000000000000000000000000000000000000000000000000000000008116908383602481855afa928315620006675785936200062d575b50600754809310620005cf576006546040516323b872dd60e01b815233600482015291166001600160a01b031660248201526044810192909252829082908186816064810103925af18015620005c45762000590575b5060055460001981146200057c57906001600d92016005553383525260408120600160ff1982541617905530337f1ab625318e0fc6efb7561d88ecc3e816ed32f8fbd49b5a6dcb5e591cf3159db98380a380f35b634e487b7160e01b83526011600452602483fd5b620005b490823d8411620005bc575b620005ab818362001620565b810190620017b0565b508262000528565b503d6200059f565b6040513d85823e3d90fd5b60405162461bcd60e51b815260048101859052603060248201527f596f75206d757374206861766520736f6d652062616c616e636520746f206a6f60448201526f696e2074686520636f6d6d756e69747960801b6064820152608490fd5b9092508381813d83116200065f575b62000648818362001620565b810103126200065a57519185620004d2565b600080fd5b503d6200063c565b6040513d87823e3d90fd5b346200025757620006833662001660565b90620006ac620006a68360018060a01b0316600052600060205260406000205490565b62001814565b808411620006d257506200032e9083620006c860209562001845565b9384923362001b84565b604051633fa733bb60e21b81526001600160a01b039390931660048401526024830193909352506044810191909152606490fd5b3462000257576020366003190112620002575760206200032e600435620017ca565b34620002575760403660031901126200025757620007546200074962001597565b60243590336200197f565b602060405160018152f35b346200025757806003193601126200025757604051604081019080821067ffffffffffffffff831117620007d857620007d491604052601781527f466f6c6c6f776572205061737320436f6d6d756e697479000000000000000000602082015260405191829160208352602083019062001533565b0390f35b634e487b7160e01b600052604160045260246000fd5b3462000257578060031936011262000257576020600554604051908152f35b34620002575780600319360112620002575760405190806004549160018360011c926001851694851562000921575b60209586861081146200090d57858852879493929187908215620008e95750506001146200088b575b5050620008759250038362001620565b620007d460405192828493845283019062001533565b90859250600482527f8a35acfbc15ff81a39ae7d344fd709f28e8600b4aa8c65c6b64bfe7fe36bd19b5b858310620008d0575050620008759350820101858062000865565b80548389018501528794508693909201918101620008b5565b92509350506200087594915060ff191682840152151560051b820101858062000865565b634e487b7160e01b83526022600452602483fd5b93607f16936200083c565b3462000257576040366003190112620002575760206004356200032e62000952620015ae565b916200095e81620017ca565b80933362001a60565b34620002575760208060031936011262000c8e57600954600435916001600160a01b039182161562000c4a57338452600d815260ff6040852054161562000bfa573384528381528260408520541062000ba75760085480840290848204148415171562000b93576040516323b872dd60e01b8152336004820152306024820152604481019490945260649081900493908290829081908101038188305af18015620006675762000b71575b5081600954166040516370a0823160e01b81523060048201528281602481855afa801562000b66578591879162000b2f575b501062000ad25760405163a9059cbb60e01b8152336004820152602481018590529082908290604490829089905af18015620006675762000aaf575b50503390600a54167fea368a40e9570069bb8e6511d668293ad2e1f03b0d982431fd223de9f3b70ca68480a480f35b8162000ac992903d10620005bc57620005ab818362001620565b50838062000a80565b60405162461bcd60e51b815260048101839052602f60248201527f4e6f7420656e6f75676820666f6c6c6f776572207061737320746f6b656e206960448201526e6e2074686520636f6d6d756e69747960881b6064820152608490fd5b809250848092503d831162000b5e575b62000b4b818362001620565b810103126200065a578490518762000a44565b503d62000b3f565b6040513d88823e3d90fd5b62000b8b90823d8411620005bc57620005ab818362001620565b508462000a12565b634e487b7160e01b85526011600452602485fd5b6084906040519062461bcd60e51b82526004820152602660248201527f596f75206d757374206861766520736f6d6520736861726520746f6b656e207460448201526506f20737761760d41b6064820152fd5b6084906040519062461bcd60e51b82526004820152602360248201527f596f75206d757374206a6f696e2074686520636f6d6d756e69747920746f207360448201526207761760ec1b6064820152fd5b6064906040519062461bcd60e51b82526004820152601c60248201527f4e6f20666f6c6c6f776572207061737320746f6b656e20666f756e64000000006044820152fd5b5080fd5b346200025757806003193601126200025757600b546040516001600160a01b039091168152602090f35b3462000257576040366003190112620002575760043562000cdc620015ae565b90338352600d60205260ff6040842054161562000d485760209262000d018262001876565b91829162000d128383873362001a60565b604051946001600160a01b0316907f90890809c654f11d6e72a28fa60149770a0d11ec6c92319d6ceb2bb0a4ea1a159080a48152f35b60405162461bcd60e51b815260206004820152602660248201527f596f75206d757374206a6f696e2074686520636f6d6d756e69747920746f2064604482015265195c1bdcda5d60d21b6064820152608490fd5b62001575565b3462000257576080366003190112620002575760043567ffffffffffffffff811162000c8e5762000dd8903690600401620015ef565b9060243567ffffffffffffffff8111620011e75762000dfc903690600401620015ef565b909160443567ffffffffffffffff8111620011e35762000e21903690600401620015ef565b949060643567ffffffffffffffff8111620011df5762000e46903690600401620015ef565b600b5491959092916001600160a01b031633036200118857600a54604051906001600160a01b031667ffffffffffffffff610f5283019081119083111762001174578190610f5262001ea7833960a0610f5283015262000ecb62000eb360a0610f52850101898b62001753565b610f52840181036020610f5286010152858c62001753565b90336040610f5285010152306060610f52850101526080610f528401015203908af080156200116957600980546001600160a01b0319166001600160a01b0383811691909117909155600a5460405192911667ffffffffffffffff60e0840190811190841117620011555790829160e08d9401604052338352602083015260018060a01b0316604082015262000f6336878962001774565b606082015262000f7536848b62001774565b608082015262000f87368b8662001774565b60a082015262000f9936868a62001774565b60c0820152600c546001600160a01b031690813b1562001151576040805163ca0dc13160e01b81523060048201526024810182905282516001600160a01b039081166044830152602084015181166064830152918301519091166084820152606082015160e060a4830152909392849290918391859183916200107491620010279061012485019062001533565b60c0620010606200104b60808501519360431994858983030160c48a015262001533565b60a0850151848883030160e489015262001533565b920151908483030161010485015262001533565b03925af18015620011465762001111575b5091620010fa6200110b927f51181d00076312588749b05451fccec7bd5ee67387beabcbdb439192c454f2a396959460018060a01b03600a54169981604051928392833781018d815203902099620010eb60405197889760608952606089019162001753565b91868303602088015262001753565b908382036040850152339662001753565b0390a480f35b67ffffffffffffffff819a929a11620011325760405297620010fa62001085565b634e487b7160e01b82526041600452602482fd5b6040513d8c823e3d90fd5b8280fd5b634e487b7160e01b8c52604160045260248cfd5b6040513d8b823e3d90fd5b634e487b7160e01b8b52604160045260248bfd5b60405162461bcd60e51b815260206004820152602960248201527f4f6e6c792061646d696e2063616e2063726561746520666f6c6c6f776572207060448201526830b9b9903a37b5b2b760b91b6064820152608490fd5b8780fd5b8580fd5b8380fd5b3462000257578060031936011262000257576040517f00000000000000000000000000000000000000000000000000000000000000006001600160a01b03168152602090f35b34620002575780600319360112620002575760ff7f0000000000000000000000000000000000000000000000000000000000000000169060ff82116200127c57602082604051908152f35b634e487b7160e01b81526011600452602490fd5b3462000257576060366003190112620002575762000754620012b162001597565b620012bb620015ae565b60443591620012cc833383620018a7565b6200197f565b34620002575760403660031901126200025757600b546001600160a01b03163303620013075760043560075560243560085580f35b60405162461bcd60e51b815260206004820152601d60248201527f4f6e6c792061646d696e2063616e207365742074686520636f6e6669670000006044820152606490fd5b3462000257578060031936011262000257576020600254604051908152f35b3462000257576020366003190112620002575760206200032e60043562001845565b34620002575760403660031901126200025757620013aa62001597565b6024359033156200142c576001600160a01b0316918215620014145760408291338152600160205281812085825260205220556040519081527f8c5be1e5ebec7d5bd14f71427d1e84f3dd0314c0f7b2291e5b200ac8c7c3b92560203392a3602060405160018152f35b60249060405190634a1406b160e11b82526004820152fd5b60405163e602df0560e01b815260048101849052602490fd5b34620002575780600319360112620002575760405190806003549160018360011c92600185169485156200150a575b60209586861081146200090d57858852879493929187908215620008e9575050600114620014ac575050620008759250038362001620565b90859250600382527fc2575a0e9e593c00f959f8c92f12db2869c3395a3b0502d05e2516446f71f85b5b858310620014f1575050620008759350820101858062000865565b80548389018501528794508693909201918101620014d6565b93607f169362001474565b34620002575780600319360112620002575760206200032e620016ba565b919082519283825260005b84811062001560575050826000602080949584010152601f8019910116010190565b6020818301810151848301820152016200153e565b346200065a5760203660031901126200065a5760206200032e60043562001814565b600435906001600160a01b03821682036200065a57565b602435906001600160a01b03821682036200065a57565b346200065a5760203660031901126200065a57620015e262001597565b5060206040516000198152f35b9181601f840112156200065a5782359167ffffffffffffffff83116200065a57602083818601950101116200065a57565b90601f8019910116810190811067ffffffffffffffff821117620007d857604052565b67ffffffffffffffff8111620007d857601f01601f191660200190565b60609060031901126200065a57600435906001600160a01b039060243582811681036200065a579160443590811681036200065a5790565b346200065a5760203660031901126200065a5760206200032e60043562001876565b6040516370a0823160e01b81523060048201526020816024817f00000000000000000000000000000000000000000000000000000000000000006001600160a01b03165afa908115620017475760009162001713575090565b90506020813d6020116200173e575b81620017316020938362001620565b810103126200065a575190565b3d915062001722565b6040513d6000823e3d90fd5b908060209392818452848401376000828201840152601f01601f1916010190565b929192620017828262001643565b9162001792604051938462001620565b8294818452818301116200065a578281602093846000960137010152565b908160209103126200065a575180151581036200065a5790565b620017d4620016ba565b60018101809111620017fe576002549060018201809211620017fe57620017fb9262001cb8565b90565b634e487b7160e01b600052601160045260246000fd5b6200181e620016ba565b60018101809111620017fe576002549060018201809211620017fe57620017fb9262001cfd565b60025460018101809111620017fe576200185e620016ba565b9060018201809211620017fe57620017fb9262001cb8565b60025460018101809111620017fe576200188f620016ba565b9060018201809211620017fe57620017fb9262001cfd565b9160018060a01b038093169160009383855260016020526040938486209183169182875260205284862054926000198403620018e7575b50505050505050565b8484106200194f57508015620019375781156200191f57855260016020528385209085526020520391205538808080808080620018de565b8451634a1406b160e11b815260048101879052602490fd5b845163e602df0560e01b815260048101879052602490fd5b8551637dc7a0d960e11b81526001600160a01b039190911660048201526024810184905260448101859052606490fd5b916001600160a01b0380841692831562001a47571692831562001a2e5760009083825281602052604082205490838210620019fc575091604082827fddf252ad1be2c89b69c2b068fc378daa952ba7f163c4a11628f55a4df523b3ef958760209652828652038282205586815220818154019055604051908152a3565b60405163391434e360e21b81526001600160a01b03919091166004820152602481019190915260448101839052606490fd5b60405163ec442f0560e01b815260006004820152602490fd5b604051634b637e8f60e11b815260006004820152602490fd5b604080516323b872dd60e01b60208201526001600160a01b038316602482015230604482015260648101859052919492909162001ad79062001ab081608481015b03601f19810183528262001620565b7f000000000000000000000000000000000000000000000000000000000000000062001d96565b6001600160a01b0390811694851562001b6c5760025493808501809511620017fe577fdcbc1c05240f31ff3ad067ef1ee35ce4997762752e3a095284754544f4c709d794600255866000526000602052836000208181540190558660007fddf252ad1be2c89b69c2b068fc378daa952ba7f163c4a11628f55a4df523b3ef60208751858152a3835195865260208601521692a3565b825163ec442f0560e01b815260006004820152602490fd5b9194936001600160a01b03808716949381811693908387860362001ca4575b5050851562001a4757600092868452836020526040938481205499828b1062001c7457508188999a7ffbde797d201c681b91056529119e0b02407c7bb96a4a2c75c01fc9667232c8db97989983528260205203858220558160025403600255887fddf252ad1be2c89b69c2b068fc378daa952ba7f163c4a11628f55a4df523b3ef60208751858152a3835163a9059cbb60e01b60208201526001600160a01b03831660248201526044810188905262001c659062001ab0816064810162001aa1565b835196875260208701521693a4565b855163391434e360e21b81526001600160a01b03919091166004820152602481018b905260448101839052606490fd5b62001cb0918a620018a7565b388362001ba3565b919062001cc782828562001cfd565b92821562001ce7570962001cd85790565b60018101809111620017fe5790565b634e487b7160e01b600052601260045260246000fd5b9091828202916000198482099383808610950394808603951462001d87578483111562001d755782910981600003821680920460028082600302188083028203028083028203028083028203028083028203028083028203028092029003029360018380600003040190848311900302920304170290565b60405163227bc15360e01b8152600490fd5b50508092501562001ce7570490565b60008062001de79260018060a01b03169360208151910182865af13d1562001e35573d9062001dc58262001643565b9162001dd5604051938462001620565b82523d6000602084013e5b8362001e3e565b805190811515918262001e17575b505062001dff5750565b60249060405190635274afe760e01b82526004820152fd5b62001e2c9250602080918301019101620017b0565b15388062001df5565b60609062001de0565b9062001e67575080511562001e5557805190602001fd5b604051630a12f52160e11b8152600490fd5b8151158062001e9c575b62001e7a575090565b604051639996b31560e01b81526001600160a01b039091166004820152602490fd5b50803b1562001e7156fe60406080815262000f5280380380620000188162000454565b92833981019060a0818303126200044f5780516001600160401b0392908381116200044f57816200004b9184016200047a565b9060209081840151908582116200044f57620000699185016200047a565b9162000077868501620004ec565b906200009460806200008c60608801620004ec565b9601620004ec565b9581518181116200034f576003908154906001948583811c9316801562000444575b888410146200042e578190601f93848111620003d8575b508890848311600114620003715760009262000365575b505060001982851b1c191690851b1782555b86519283116200034f5760049687548581811c9116801562000344575b888210146200032f57828111620002e4575b508691841160011462000279579383949184926000956200026d575b50501b92600019911b1c19161783555b3315620002565760058054336001600160a01b03198083168217909355885192966001600160a01b03969287929083167f8be0079c531659141344cd1fd0a4f28419497f9722a3daafe3b4186f6b6457e0600080a316918215620002425750600254670de0b6b3a7640000918282018092116200022d57509160007fddf252ad1be2c89b69c2b068fc378daa952ba7f163c4a11628f55a4df523b3ef86600697969489966002558484528382528c84208181540190558c51908152a316600052528360002092169082541617905551610a509081620005028239f35b601190634e487b7160e01b6000525260246000fd5b600060249263ec442f0560e01b8352820152fd5b8551631e4fbdf760e01b8152600081850152602490fd5b01519350388062000141565b9190601f198416928860005284886000209460005b8a89838310620002cc5750505010620002b1575b50505050811b01835562000151565b01519060f884600019921b161c1916905538808080620002a2565b8686015189559097019694850194889350016200028e565b88600052876000208380870160051c8201928a881062000325575b0160051c019086905b8281106200031857505062000125565b6000815501869062000308565b92508192620002ff565b602289634e487b7160e01b6000525260246000fd5b90607f169062000113565b634e487b7160e01b600052604160045260246000fd5b015190503880620000e4565b90879350601f19831691866000528a6000209260005b8c828210620003c15750508411620003a8575b505050811b018255620000f6565b015160001983871b60f8161c191690553880806200039a565b8385015186558b9790950194938401930162000387565b90915084600052886000208480850160051c8201928b861062000424575b918991869594930160051c01915b82811062000414575050620000cd565b6000815585945089910162000404565b92508192620003f6565b634e487b7160e01b600052602260045260246000fd5b92607f1692620000b6565b600080fd5b6040519190601f01601f191682016001600160401b038111838210176200034f57604052565b919080601f840112156200044f5782516001600160401b0381116200034f57602090620004b0601f8201601f1916830162000454565b928184528282870101116200044f5760005b818110620004d857508260009394955001015290565b8581018301518482018401528201620004c2565b51906001600160a01b03821682036200044f5756fe6080604081815260048036101561001557600080fd5b600092833560e01c90816306f18b1e146107945750806306fdde031461069e578063095ea7b3146105f557806318160ddd146105d657806323b872dd146104e3578063313ce567146104c75780636c197ff51461045557806370a082311461041e578063715018a6146103be5780638da5cb5b1461039557806395d89b41146102935780639b695a2b14610258578063a3f4df7e146101e3578063a9059cbb146101b2578063dd62ed3e146101655763f2fde38b146100d357600080fd5b34610161576020366003190112610161576100ec61085e565b906100f56109ee565b6001600160a01b0391821692831561014b575050600554826bffffffffffffffffffffffff60a01b821617600555167f8be0079c531659141344cd1fd0a4f28419497f9722a3daafe3b4186f6b6457e08380a380f35b51631e4fbdf760e01b8152908101849052602490fd5b8280fd5b5050346101ae57806003193601126101ae578060209261018361085e565b61018b610879565b6001600160a01b0391821683526001865283832091168252845220549051908152f35b5080fd5b5050346101ae57806003193601126101ae576020906101dc6101d261085e565b6024359033610910565b5160018152f35b509190346101ae57816003193601126101ae578051918183019083821067ffffffffffffffff83111761024557506102419350815260128252712337b63637bbb2b92830b9b9902a37b5b2b760711b6020830152519182918261088f565b0390f35b634e487b7160e01b815260418552602490fd5b5050346101ae5760203660031901126101ae576020916001600160a01b039082908261028261085e565b168152600685522054169051908152f35b509190346101ae57816003193601126101ae5780519180938054916001908360011c926001851694851561038b575b60209586861081146103785785895290811561035457506001146102fc575b61024187876102f2828c03836108d8565b519182918261088f565b81529295507f8a35acfbc15ff81a39ae7d344fd709f28e8600b4aa8c65c6b64bfe7fe36bd19b5b8284106103415750505082610241946102f2928201019438806102e1565b8054868501880152928601928101610323565b60ff19168887015250505050151560051b83010192506102f28261024138806102e1565b634e487b7160e01b845260228352602484fd5b93607f16936102c2565b5050346101ae57816003193601126101ae5760055490516001600160a01b039091168152602090f35b833461041b578060031936011261041b576103d76109ee565b600580546001600160a01b0319811690915581906001600160a01b03167f8be0079c531659141344cd1fd0a4f28419497f9722a3daafe3b4186f6b6457e08280a380f35b80fd5b5050346101ae5760203660031901126101ae5760209181906001600160a01b0361044661085e565b16815280845220549051908152f35b503461016157816003193601126101615761046e61085e565b602435929091906001600160a01b038316156104ba575050816104919133610910565b30337f5533e00c6a6bb36fe95c7c9798e05fd426fc3c7f438fb0b896f1a66d2731a8628480a480f35b5163e6c4247b60e01b8152fd5b5050346101ae57816003193601126101ae576020905160128152f35b50823461041b57606036600319011261041b576104fe61085e565b610506610879565b916044359360018060a01b038316808352600160205286832033845260205286832054916000198303610542575b6020886101dc898989610910565b8683106105aa57811561059357331561057c575082526001602090815286832033845281529186902090859003905582906101dc87610534565b8751634a1406b160e11b8152908101849052602490fd5b875163e602df0560e01b8152908101849052602490fd5b8751637dc7a0d960e11b8152339181019182526020820193909352604081018790528291506060010390fd5b5050346101ae57816003193601126101ae576020906002549051908152f35b503461016157816003193601126101615761060e61085e565b602435903315610687576001600160a01b031691821561067057508083602095338152600187528181208582528752205582519081527f8c5be1e5ebec7d5bd14f71427d1e84f3dd0314c0f7b2291e5b200ac8c7c3b925843392a35160018152f35b8351634a1406b160e11b8152908101859052602490fd5b835163e602df0560e01b8152808401869052602490fd5b50903461016157826003193601126101615780519183600354906001908260011c9260018116801561078a575b6020958686108214610777575084885290811561075557506001146106fc575b61024186866102f2828b03836108d8565b929550600383527fc2575a0e9e593c00f959f8c92f12db2869c3395a3b0502d05e2516446f71f85b5b8284106107425750505082610241946102f29282010194386106eb565b8054868501880152928601928101610725565b60ff191687860152505050151560051b83010192506102f282610241386106eb565b634e487b7160e01b845260229052602483fd5b93607f16936106cb565b9280915060031936011261085a576001600160a01b036107b261085e565b1692831561084c575083803415610843575b81808092873491f1156108005750506024359033907fcaaeedf613c8ea934468db0b7d5220504ca74313c79fe6651b3cd17176c971e08480a480f35b906020606492519162461bcd60e51b8352820152601c60248201527f4661696c656420746f2073656e6420657468657220746f20706f6f6c000000006044820152fd5b506108fc6107c4565b63e6c4247b60e01b81529050fd5b8380fd5b600435906001600160a01b038216820361087457565b600080fd5b602435906001600160a01b038216820361087457565b6020808252825181830181905290939260005b8281106108c457505060409293506000838284010152601f8019910116010190565b8181018601518482016040015285016108a2565b90601f8019910116810190811067ffffffffffffffff8211176108fa57604052565b634e487b7160e01b600052604160045260246000fd5b916001600160a01b038084169283156109d557169283156109bc576000908382528160205260408220549083821061098a575091604082827fddf252ad1be2c89b69c2b068fc378daa952ba7f163c4a11628f55a4df523b3ef958760209652828652038282205586815220818154019055604051908152a3565b60405163391434e360e21b81526001600160a01b03919091166004820152602481019190915260448101839052606490fd5b60405163ec442f0560e01b815260006004820152602490fd5b604051634b637e8f60e11b815260006004820152602490fd5b6005546001600160a01b03163303610a0257565b60405163118cdaa760e01b8152336004820152602490fdfea2646970667358221220db8c3b6df313e23889bf8d8b8319e21ecbb07d999c6472221229fab51cc6e5a064736f6c63430008180033a2646970667358221220c6063562bfe5fe78a8f082ebdb6d60bbdb7449e69cc570f6a301f2dabe4e54ed64736f6c63430008180033c2575a0e9e593c00f959f8c92f12db2869c3395a3b0502d05e2516446f71f85ec2575a0e9e593c00f959f8c92f12db2869c3395a3b0502d05e2516446f71f85cc2575a0e9e593c00f959f8c92f12db2869c3395a3b0502d05e2516446f71f85fc2575a0e9e593c00f959f8c92f12db2869c3395a3b0502d05e2516446f71f860c2575a0e9e593c00f959f8c92f12db2869c3395a3b0502d05e2516446f71f861a26469706673582212209060f0406e5108d63ac14428fe01df8a500542004d111b13a02a5c4ae7ffd19064736f6c63430008180033",
  "linkReferences": {},
  "deployedLinkReferences": {}
}