{
  "_format": "hh-sol-artifact-1",
  "contractName": "NovaroClient",
  "sourceName": "contracts/NovaroClient.sol",
  "abi": [
    {
      "inputs": [
        {
          "internalType": "address",
          "name": "_pool",
          "type": "address"
        }
      ],
      "stateMutability": "nonpayable",
      "type": "constructor"
    },
    {
      "inputs": [],
      "name": "EmptyTokenBoundAccount",
      "type": "error"
    },
    {
      "inputs": [],
      "name": "InvalidDST",
      "type": "error"
    },
    {
      "inputs": [],
      "name": "InvalidERC6551Registry",
      "type": "error"
    },
    {
      "inputs": [],
      "name": "InvalidSocialOracle",
      "type": "error"
    },
    {
      "inputs": [],
      "name": "InvalidTokenOwner",
      "type": "error"
    },
    {
      "inputs": [
        {
          "internalType": "address",
          "name": "owner",
          "type": "address"
        }
      ],
      "name": "OwnableInvalidOwner",
      "type": "error"
    },
    {
      "inputs": [
        {
          "internalType": "address",
          "name": "account",
          "type": "address"
        }
      ],
      "name": "OwnableUnauthorizedAccount",
      "type": "error"
    },
    {
      "inputs": [],
      "name": "Within24HourPeriod",
      "type": "error"
    },
    {
      "anonymous": false,
      "inputs": [
        {
          "indexed": true,
          "internalType": "address",
          "name": "owner",
          "type": "address"
        },
        {
          "indexed": true,
          "internalType": "address",
          "name": "boundAccount",
          "type": "address"
        }
      ],
      "name": "AccountAlreadyBound",
      "type": "event"
    },
    {
      "anonymous": false,
      "inputs": [
        {
          "indexed": true,
          "internalType": "address",
          "name": "owner",
          "type": "address"
        },
        {
          "indexed": true,
          "internalType": "address",
          "name": "boundAccount",
          "type": "address"
        }
      ],
      "name": "CreateAccount",
      "type": "event"
    },
    {
      "anonymous": false,
      "inputs": [
        {
          "indexed": true,
          "internalType": "address",
          "name": "owner",
          "type": "address"
        },
        {
          "indexed": true,
          "internalType": "address",
          "name": "boundAccount",
          "type": "address"
        },
        {
          "indexed": true,
          "internalType": "string",
          "name": "symbol",
          "type": "string"
        },
        {
          "indexed": false,
          "internalType": "string",
          "name": "name",
          "type": "string"
        },
        {
          "indexed": false,
          "internalType": "string",
          "name": "sourceId",
          "type": "string"
        },
        {
          "indexed": false,
          "internalType": "string",
          "name": "des",
          "type": "string"
        }
      ],
      "name": "CreateFollowerPassToken",
      "type": "event"
    },
    {
      "anonymous": false,
      "inputs": [
        {
          "indexed": true,
          "internalType": "address",
          "name": "previousOwner",
          "type": "address"
        },
        {
          "indexed": true,
          "internalType": "address",
          "name": "newOwner",
          "type": "address"
        }
      ],
      "name": "OwnershipTransferred",
      "type": "event"
    },
    {
      "inputs": [],
      "name": "NAME",
      "outputs": [
        {
          "internalType": "string",
          "name": "",
          "type": "string"
        }
      ],
      "stateMutability": "view",
      "type": "function"
    },
    {
      "inputs": [
        {
          "internalType": "string",
          "name": "_name",
          "type": "string"
        },
        {
          "internalType": "string",
          "name": "_symbol",
          "type": "string"
        },
        {
          "internalType": "string",
          "name": "_sourceId",
          "type": "string"
        },
        {
          "internalType": "string",
          "name": "_des",
          "type": "string"
        }
      ],
      "name": "createFollowerPassToken",
      "outputs": [],
      "stateMutability": "nonpayable",
      "type": "function"
    },
    {
      "inputs": [
        {
          "internalType": "address",
          "name": "implementation",
          "type": "address"
        },
        {
          "internalType": "uint256",
          "name": "chainId",
          "type": "uint256"
        },
        {
          "internalType": "address",
          "name": "tokenContract",
          "type": "address"
        },
        {
          "internalType": "uint256",
          "name": "tokenId",
          "type": "uint256"
        },
        {
          "internalType": "uint256",
          "name": "salt",
          "type": "uint256"
        },
        {
          "internalType": "bytes",
          "name": "initData",
          "type": "bytes"
        }
      ],
      "name": "createOrFetchAccount",
      "outputs": [
        {
          "internalType": "address",
          "name": "",
          "type": "address"
        }
      ],
      "stateMutability": "nonpayable",
      "type": "function"
    },
    {
      "inputs": [],
      "name": "getAllFollowerPassToken",
      "outputs": [
        {
          "components": [
            {
              "internalType": "address",
              "name": "deployer",
              "type": "address"
            },
            {
              "internalType": "address",
              "name": "boundAccount",
              "type": "address"
            },
            {
              "internalType": "address",
              "name": "token",
              "type": "address"
            },
            {
              "internalType": "string",
              "name": "name",
              "type": "string"
            },
            {
              "internalType": "string",
              "name": "symbol",
              "type": "string"
            },
            {
              "internalType": "string",
              "name": "sourceId",
              "type": "string"
            },
            {
              "internalType": "string",
              "name": "des",
              "type": "string"
            }
          ],
          "internalType": "struct NovaroDataTypes.FollowerPassTokenData[]",
          "name": "",
          "type": "tuple[]"
        }
      ],
      "stateMutability": "view",
      "type": "function"
    },
    {
      "inputs": [
        {
          "internalType": "address",
          "name": "_owner",
          "type": "address"
        }
      ],
      "name": "getBoundAccount",
      "outputs": [
        {
          "internalType": "address",
          "name": "",
          "type": "address"
        }
      ],
      "stateMutability": "view",
      "type": "function"
    },
    {
      "inputs": [],
      "name": "getDynamicSocialToken",
      "outputs": [
        {
          "internalType": "address",
          "name": "",
          "type": "address"
        }
      ],
      "stateMutability": "view",
      "type": "function"
    },
    {
      "inputs": [],
      "name": "getRegistry",
      "outputs": [
        {
          "internalType": "address",
          "name": "",
          "type": "address"
        }
      ],
      "stateMutability": "view",
      "type": "function"
    },
    {
      "inputs": [
        {
          "internalType": "address",
          "name": "_owner",
          "type": "address"
        }
      ],
      "name": "getSystemIdentifier",
      "outputs": [
        {
          "internalType": "string",
          "name": "",
          "type": "string"
        }
      ],
      "stateMutability": "view",
      "type": "function"
    },
    {
      "inputs": [],
      "name": "getTokenAddresses",
      "outputs": [
        {
          "internalType": "address[]",
          "name": "",
          "type": "address[]"
        }
      ],
      "stateMutability": "view",
      "type": "function"
    },
    {
      "inputs": [],
      "name": "offChainFeed",
      "outputs": [],
      "stateMutability": "nonpayable",
      "type": "function"
    },
    {
      "inputs": [],
      "name": "owner",
      "outputs": [
        {
          "internalType": "address",
          "name": "",
          "type": "address"
        }
      ],
      "stateMutability": "view",
      "type": "function"
    },
    {
      "inputs": [],
      "name": "renounceOwnership",
      "outputs": [],
      "stateMutability": "nonpayable",
      "type": "function"
    },
    {
      "inputs": [
        {
          "internalType": "address",
          "name": "_dst",
          "type": "address"
        }
      ],
      "name": "setDynamicSocialToken",
      "outputs": [],
      "stateMutability": "nonpayable",
      "type": "function"
    },
    {
      "inputs": [
        {
          "internalType": "address",
          "name": "_registry",
          "type": "address"
        }
      ],
      "name": "setRegistry",
      "outputs": [],
      "stateMutability": "nonpayable",
      "type": "function"
    },
    {
      "inputs": [
        {
          "internalType": "address",
          "name": "_socialOracle",
          "type": "address"
        }
      ],
      "name": "setSocialOracle",
      "outputs": [],
      "stateMutability": "nonpayable",
      "type": "function"
    },
    {
      "inputs": [
        {
          "internalType": "address",
          "name": "newOwner",
          "type": "address"
        }
      ],
      "name": "transferOwnership",
      "outputs": [],
      "stateMutability": "nonpayable",
      "type": "function"
    }
  ],
  "bytecode": "0x608060405234801561001057600080fd5b506040516200290f3803806200290f833981016040819052610031916100d6565b338061005757604051631e4fbdf760e01b81526000600482015260240160405180910390fd5b61006081610086565b50600680546001600160a01b0319166001600160a01b0392909216919091179055610106565b600080546001600160a01b038381166001600160a01b0319831681178455604051919092169283917f8be0079c531659141344cd1fd0a4f28419497f9722a3daafe3b4186f6b6457e09190a35050565b6000602082840312156100e857600080fd5b81516001600160a01b03811681146100ff57600080fd5b9392505050565b6127f980620001166000396000f3fe60806040523480156200001157600080fd5b5060043610620001155760003560e01c80638dd3beb711620000a3578063c17ab63c116200006e578063c17ab63c1462000245578063d530febe146200025c578063ee8c24b8146200028b578063f2fde38b14620002a457600080fd5b80638dd3beb714620001d9578063a3f4df7e14620001f0578063a91ee0dc146200021c578063b4697f90146200023357600080fd5b80635bed809b11620000e45780635bed809b146200017e578063715018a6146200019757806375bdf63114620001a15780638da5cb5b14620001c757600080fd5b8063148bf957146200011a5780633e06a0e014620001265780634c1bc5ff146200013d5780635ab1bd531462000154575b600080fd5b62000124620002bb565b005b620001246200013736600462001009565b62000442565b620001246200014e3660046200107c565b6200046e565b6008546001600160a01b03165b6040516001600160a01b0390911681526020015b60405180910390f35b6200018862000785565b60405162000175919062001195565b6200012462000b8a565b620001b8620001b236600462001009565b62000ba2565b604051620001759190620012a4565b6000546001600160a01b031662000161565b62000161620001ea366004620012b9565b62000c56565b620001b86040518060400160405280600c81526020016b139bdd985c9bd0db1a595b9d60a21b81525081565b620001246200022d36600462001009565b62000e5f565b6007546001600160a01b031662000161565b620001246200025636600462001009565b62000e8b565b620001616200026d36600462001009565b6001600160a01b039081166000908152600460205260409020541690565b6200029562000eb7565b60405162000175919062001347565b62000124620002b536600462001009565b62000f1e565b6007546001600160a01b031680620002e6576040516320fe427160e21b815260040160405180910390fd5b3360009081526005602081905260409091205442906200030a906201518062001396565b8110156200032b5760405163cd7be42b60e01b815260040160405180910390fd5b3360009081526020839052604090208190556009546001600160a01b0316806200036857604051630170bffd60e11b815260040160405180910390fd5b604051631f7f950d60e11b81523360048201526000906001600160a01b03831690633eff2a1a90602401602060405180830381865afa158015620003b0573d6000803e3d6000fd5b505050506040513d601f19601f82011682018060405250810190620003d69190620013be565b6040516333aded3760e01b8152336004820152602481018290529091506001600160a01b038616906333aded3790604401600060405180830381600087803b1580156200042257600080fd5b505af115801562000437573d6000803e3d6000fd5b505050505050505050565b6200044c62000f66565b600780546001600160a01b0319166001600160a01b0392909216919091179055565b336000908152600460205260409020546001600160a01b031680620004a6576040516372acb0c760e01b815260040160405180910390fd5b6000898989893386604051620004bc9062000fe5565b620004cd9695949392919062001401565b604051809103906000f080158015620004ea573d6000803e3d6000fd5b50905060006040518060e00160405280336001600160a01b03168152602001846001600160a01b03168152602001836001600160a01b031681526020018c8c8080601f016020809104026020016040519081016040528093929190818152602001838380828437600092019190915250505090825250604080516020601f8d018190048102820181019092528b815291810191908c908c9081908401838280828437600092019190915250505090825250604080516020601f8b0181900481028201810190925289815291810191908a908a9081908401838280828437600092019190915250505090825250604080516020601f89018190048102820181019092528781529181019190889088908190840183828082843760009201829052509390945250506001805480820182557fb10e2d527612073b26eecdfd717e6a320cf44b4afac2b0732d9fcbe2b7fa0cf60180546001600160a01b03199081166001600160a01b038981169182179093558452600260208181526040958690208851815485169086161781559088015194810180548416958516959095179094559386015193830180549091169390911692909217909155606083015192935083929091506003820190620006bf9082620014fa565b5060808201516004820190620006d69082620014fa565b5060a08201516005820190620006ed9082620014fa565b5060c08201516006820190620007049082620014fa565b50506040516200071991508a908a90620015c7565b6040518091039020836001600160a01b0316336001600160a01b03167f51181d00076312588749b05451fccec7bd5ee67387beabcbdb439192c454f2a38e8e8c8c8c8c6040516200077096959493929190620015d7565b60405180910390a45050505050505050505050565b6001805460408051602080840282018101909252828152606093600293600093830182828015620007e057602002820191906000526020600020905b81546001600160a01b03168152600190910190602001808311620007c1575b505050505090506000815167ffffffffffffffff81111562000806576200080662001453565b6040519080825280602002602001820160405280156200086e57816020015b6040805160e081018252600080825260208083018290529282015260608082018190526080820181905260a0820181905260c08201528252600019909201910181620008255790505b50905060005b825181101562000b825783600084838151811062000896576200089662001626565b6020908102919091018101516001600160a01b039081168352828201939093526040918201600020825160e0810184528154851681526001820154851692810192909252600281015490931691810191909152600382018054919291606084019190620009039062001469565b80601f0160208091040260200160405190810160405280929190818152602001828054620009319062001469565b8015620009825780601f10620009565761010080835404028352916020019162000982565b820191906000526020600020905b8154815290600101906020018083116200096457829003601f168201915b505050505081526020016004820180546200099d9062001469565b80601f0160208091040260200160405190810160405280929190818152602001828054620009cb9062001469565b801562000a1c5780601f10620009f05761010080835404028352916020019162000a1c565b820191906000526020600020905b815481529060010190602001808311620009fe57829003601f168201915b5050505050815260200160058201805462000a379062001469565b80601f016020809104026020016040519081016040528092919081815260200182805462000a659062001469565b801562000ab65780601f1062000a8a5761010080835404028352916020019162000ab6565b820191906000526020600020905b81548152906001019060200180831162000a9857829003601f168201915b5050505050815260200160068201805462000ad19062001469565b80601f016020809104026020016040519081016040528092919081815260200182805462000aff9062001469565b801562000b505780601f1062000b245761010080835404028352916020019162000b50565b820191906000526020600020905b81548152906001019060200180831162000b3257829003601f168201915b50505050508152505082828151811062000b6e5762000b6e62001626565b602090810291909101015260010162000874565b509392505050565b62000b9462000f66565b62000ba0600062000f95565b565b6001600160a01b038116600090815260036020526040902080546060919062000bcb9062001469565b80601f016020809104026020016040519081016040528092919081815260200182805462000bf99062001469565b801562000c4a5780601f1062000c1e5761010080835404028352916020019162000c4a565b820191906000526020600020905b81548152906001019060200180831162000c2c57829003601f168201915b50505050509050919050565b336000908152600460205260408120546001600160a01b0316801562000cb4576040516001600160a01b0382169033907fbbbb9ffe5792d4ad2e6de72b841bd59303efce2d9aa93907e7c21b8f6dcf548990600090a3905062000e54565b6008546001600160a01b031662000cdd576040516246a29560e81b815260040160405180910390fd5b6007546040516331a9108f60e11b81526004810188905233916001600160a01b031690636352211e90602401602060405180830381865afa15801562000d27573d6000803e3d6000fd5b505050506040513d601f19601f8201168201806040525081019062000d4d91906200163c565b6001600160a01b03161462000d755760405163153e35b760e11b815260040160405180910390fd5b60085460405163da7323b360e01b81526000916001600160a01b03169063da7323b39062000db4908d908d908d908d908d908d908d906004016200165c565b6020604051808303816000875af115801562000dd4573d6000803e3d6000fd5b505050506040513d601f19601f8201168201806040525081019062000dfa91906200163c565b3360008181526004602052604080822080546001600160a01b0319166001600160a01b0386169081179091559051939450927f14a8ec3fa88b43ee6d7a7a0e47e3468f408e39a1cf0be757bb6c81b94e2fdb9e9190a39150505b979650505050505050565b62000e6962000f66565b600880546001600160a01b0319166001600160a01b0392909216919091179055565b62000e9562000f66565b600980546001600160a01b0319166001600160a01b0392909216919091179055565b6060600160000180548060200260200160405190810160405280929190818152602001828054801562000f1457602002820191906000526020600020905b81546001600160a01b0316815260019091019060200180831162000ef5575b5050505050905090565b62000f2862000f66565b6001600160a01b03811662000f5857604051631e4fbdf760e01b8152600060048201526024015b60405180910390fd5b62000f638162000f95565b50565b6000546001600160a01b0316331462000ba05760405163118cdaa760e01b815233600482015260240162000f4f565b600080546001600160a01b038381166001600160a01b0319831681178455604051919092169283917f8be0079c531659141344cd1fd0a4f28419497f9722a3daafe3b4186f6b6457e09190a35050565b611127806200169d83390190565b6001600160a01b038116811462000f6357600080fd5b6000602082840312156200101c57600080fd5b8135620010298162000ff3565b9392505050565b60008083601f8401126200104357600080fd5b50813567ffffffffffffffff8111156200105c57600080fd5b6020830191508360208285010111156200107557600080fd5b9250929050565b6000806000806000806000806080898b0312156200109957600080fd5b883567ffffffffffffffff80821115620010b257600080fd5b620010c08c838d0162001030565b909a50985060208b0135915080821115620010da57600080fd5b620010e88c838d0162001030565b909850965060408b01359150808211156200110257600080fd5b620011108c838d0162001030565b909650945060608b01359150808211156200112a57600080fd5b50620011398b828c0162001030565b999c989b5096995094979396929594505050565b6000815180845260005b81811015620011755760208185018101518683018201520162001157565b506000602082860101526020601f19601f83011685010191505092915050565b600060208083018184528085518083526040925060408601915060408160051b87010184880160005b838110156200129657888303603f19018552815180516001600160a01b031684528781015160e090620011fb8a8701826001600160a01b03169052565b50878201516001600160a01b03168589015260608083015181870183905262001227838801826200114d565b92505050608080830151868303828801526200124483826200114d565b9250505060a080830151868303828801526200126183826200114d565b9250505060c080830151925085820381870152506200128181836200114d565b968901969450505090860190600101620011be565b509098975050505050505050565b6020815260006200102960208301846200114d565b600080600080600080600060c0888a031215620012d557600080fd5b8735620012e28162000ff3565b9650602088013595506040880135620012fb8162000ff3565b9450606088013593506080880135925060a088013567ffffffffffffffff8111156200132657600080fd5b620013348a828b0162001030565b989b979a50959850939692959293505050565b6020808252825182820181905260009190848201906040850190845b818110156200138a5783516001600160a01b03168352928401929184019160010162001363565b50909695505050505050565b80820180821115620013b857634e487b7160e01b600052601160045260246000fd5b92915050565b600060208284031215620013d157600080fd5b5051919050565b81835281816020850137506000828201602090810191909152601f909101601f19169091010190565b6080815260006200141760808301888a620013d8565b82810360208401526200142c818789620013d8565b6001600160a01b039586166040850152939094166060909201919091525095945050505050565b634e487b7160e01b600052604160045260246000fd5b600181811c908216806200147e57607f821691505b6020821081036200149f57634e487b7160e01b600052602260045260246000fd5b50919050565b601f821115620014f5576000816000526020600020601f850160051c81016020861015620014d05750805b601f850160051c820191505b81811015620014f157828155600101620014dc565b5050505b505050565b815167ffffffffffffffff81111562001517576200151762001453565b6200152f8162001528845462001469565b84620014a5565b602080601f8311600181146200156757600084156200154e5750858301515b600019600386901b1c1916600185901b178555620014f1565b600085815260208120601f198616915b82811015620015985788860151825594840194600190910190840162001577565b5085821015620015b75787850151600019600388901b60f8161c191681555b5050505050600190811b01905550565b8183823760009101908152919050565b606081526000620015ed60608301888a620013d8565b828103602084015262001602818789620013d8565b9050828103604084015262001619818587620013d8565b9998505050505050505050565b634e487b7160e01b600052603260045260246000fd5b6000602082840312156200164f57600080fd5b8151620010298162000ff3565b600060018060a01b03808a16835288602084015280881660408401525085606083015284608083015260c060a08301526200161960c083018486620013d856fe60806040526040516200112738038062001127833981016040819052620000269162000376565b338484600362000037838262000496565b50600462000046828262000496565b5050506001600160a01b0381166200007957604051631e4fbdf760e01b8152600060048201526024015b60405180910390fd5b6200008481620000ce565b506200009981670de0b6b3a764000062000120565b6001600160a01b03918216600090815260066020526040902080546001600160a01b03191691909216179055506200058a9050565b600580546001600160a01b038381166001600160a01b0319831681179093556040519116919082907f8be0079c531659141344cd1fd0a4f28419497f9722a3daafe3b4186f6b6457e090600090a35050565b6001600160a01b0382166200014c5760405163ec442f0560e01b81526000600482015260240162000070565b6200015a600083836200015e565b5050565b6001600160a01b0383166200018d57806002600082825462000181919062000562565b90915550620002019050565b6001600160a01b03831660009081526020819052604090205481811015620001e25760405163391434e360e21b81526001600160a01b0385166004820152602481018290526044810183905260640162000070565b6001600160a01b03841660009081526020819052604090209082900390555b6001600160a01b0382166200021f576002805482900390556200023e565b6001600160a01b03821660009081526020819052604090208054820190555b816001600160a01b0316836001600160a01b03167fddf252ad1be2c89b69c2b068fc378daa952ba7f163c4a11628f55a4df523b3ef836040516200028491815260200190565b60405180910390a3505050565b634e487b7160e01b600052604160045260246000fd5b600082601f830112620002b957600080fd5b81516001600160401b0380821115620002d657620002d662000291565b604051601f8301601f19908116603f0116810190828211818310171562000301576200030162000291565b81604052838152602092508660208588010111156200031f57600080fd5b600091505b8382101562000343578582018301518183018401529082019062000324565b6000602085830101528094505050505092915050565b80516001600160a01b03811681146200037157600080fd5b919050565b600080600080608085870312156200038d57600080fd5b84516001600160401b0380821115620003a557600080fd5b620003b388838901620002a7565b95506020870151915080821115620003ca57600080fd5b50620003d987828801620002a7565b935050620003ea6040860162000359565b9150620003fa6060860162000359565b905092959194509250565b600181811c908216806200041a57607f821691505b6020821081036200043b57634e487b7160e01b600052602260045260246000fd5b50919050565b601f82111562000491576000816000526020600020601f850160051c810160208610156200046c5750805b601f850160051c820191505b818110156200048d5782815560010162000478565b5050505b505050565b81516001600160401b03811115620004b257620004b262000291565b620004ca81620004c3845462000405565b8462000441565b602080601f831160018114620005025760008415620004e95750858301515b600019600386901b1c1916600185901b1785556200048d565b600085815260208120601f198616915b82811015620005335788860151825594840194600190910190840162000512565b5085821015620005525787850151600019600388901b60f8161c191681555b5050505050600190811b01905550565b808201808211156200058457634e487b7160e01b600052601160045260246000fd5b92915050565b610b8d806200059a6000396000f3fe6080604052600436106100f35760003560e01c80638da5cb5b1161008a578063a9059cbb11610059578063a9059cbb146102d6578063cce7ec13146102f6578063dd62ed3e14610309578063f2fde38b1461034f57600080fd5b80638da5cb5b1461021b57806395d89b411461024d5780639b695a2b14610262578063a3f4df7e1461029857600080fd5b8063313ce567116100c6578063313ce567146101925780636c197ff5146101ae57806370a08231146101d0578063715018a61461020657600080fd5b806306fdde03146100f8578063095ea7b31461012357806318160ddd1461015357806323b872dd14610172575b600080fd5b34801561010457600080fd5b5061010d61036f565b60405161011a91906109d6565b60405180910390f35b34801561012f57600080fd5b5061014361013e366004610a41565b610401565b604051901515815260200161011a565b34801561015f57600080fd5b506002545b60405190815260200161011a565b34801561017e57600080fd5b5061014361018d366004610a6b565b610431565b34801561019e57600080fd5b506040516012815260200161011a565b3480156101ba57600080fd5b506101ce6101c9366004610a41565b61046b565b005b3480156101dc57600080fd5b506101646101eb366004610aa7565b6001600160a01b031660009081526020819052604090205490565b34801561021257600080fd5b506101ce6104d0565b34801561022757600080fd5b506005546001600160a01b03165b6040516001600160a01b03909116815260200161011a565b34801561025957600080fd5b5061010d6104e4565b34801561026e57600080fd5b5061023561027d366004610aa7565b6006602052600090815260409020546001600160a01b031681565b3480156102a457600080fd5b5061010d604051806040016040528060128152602001712337b63637bbb2b92830b9b9902a37b5b2b760711b81525081565b3480156102e257600080fd5b506101436102f1366004610a41565b6104f3565b6101ce610304366004610a41565b610517565b34801561031557600080fd5b50610164610324366004610ac9565b6001600160a01b03918216600090815260016020908152604080832093909416825291909152205490565b34801561035b57600080fd5b506101ce61036a366004610aa7565b6105f5565b60606003805461037e90610afc565b80601f01602080910402602001604051908101604052809291908181526020018280546103aa90610afc565b80156103f75780601f106103cc576101008083540402835291602001916103f7565b820191906000526020600020905b8154815290600101906020018083116103da57829003601f168201915b5050505050905090565b336000908152600660205260408120546001600160a01b0316610425818585610633565b60019150505b92915050565b336000908152600660205260408120546001600160a01b0316610455858285610645565b6104608585856106c3565b506001949350505050565b6001600160a01b0382166104925760405163e6c4247b60e01b815260040160405180910390fd5b61049c82826104f3565b506040518190309033907f5533e00c6a6bb36fe95c7c9798e05fd426fc3c7f438fb0b896f1a66d2731a86290600090a45050565b6104d8610722565b6104e26000610785565b565b60606004805461037e90610afc565b336000908152600660205260408120546001600160a01b03166104258185856106c3565b6001600160a01b03821661053e5760405163e6c4247b60e01b815260040160405180910390fd5b6040516000906001600160a01b038416903480156108fc029184818181858888f193505050509050806105b85760405162461bcd60e51b815260206004820152601c60248201527f4661696c656420746f2073656e6420657468657220746f20706f6f6c0000000060448201526064015b60405180910390fd5b604051829033906001600160a01b038616907fcaaeedf613c8ea934468db0b7d5220504ca74313c79fe6651b3cd17176c971e090600090a4505050565b6105fd610722565b6001600160a01b03811661062757604051631e4fbdf760e01b8152600060048201526024016105af565b61063081610785565b50565b61064083838360016107d7565b505050565b6001600160a01b0383811660009081526001602090815260408083209386168352929052205460001981146106bd57818110156106ae57604051637dc7a0d960e11b81526001600160a01b038416600482015260248101829052604481018390526064016105af565b6106bd848484840360006107d7565b50505050565b6001600160a01b0383166106ed57604051634b637e8f60e11b8152600060048201526024016105af565b6001600160a01b0382166107175760405163ec442f0560e01b8152600060048201526024016105af565b6106408383836108ac565b336000908152600660205260409020546005546001600160a01b039081169116146104e257336000908152600660205260409020546001600160a01b031660405163118cdaa760e01b81526001600160a01b0390911660048201526024016105af565b600580546001600160a01b038381166001600160a01b0319831681179093556040519116919082907f8be0079c531659141344cd1fd0a4f28419497f9722a3daafe3b4186f6b6457e090600090a35050565b6001600160a01b0384166108015760405163e602df0560e01b8152600060048201526024016105af565b6001600160a01b03831661082b57604051634a1406b160e11b8152600060048201526024016105af565b6001600160a01b03808516600090815260016020908152604080832093871683529290522082905580156106bd57826001600160a01b0316846001600160a01b03167f8c5be1e5ebec7d5bd14f71427d1e84f3dd0314c0f7b2291e5b200ac8c7c3b9258460405161089e91815260200190565b60405180910390a350505050565b6001600160a01b0383166108d75780600260008282546108cc9190610b36565b909155506109499050565b6001600160a01b0383166000908152602081905260409020548181101561092a5760405163391434e360e21b81526001600160a01b038516600482015260248101829052604481018390526064016105af565b6001600160a01b03841660009081526020819052604090209082900390555b6001600160a01b03821661096557600280548290039055610984565b6001600160a01b03821660009081526020819052604090208054820190555b816001600160a01b0316836001600160a01b03167fddf252ad1be2c89b69c2b068fc378daa952ba7f163c4a11628f55a4df523b3ef836040516109c991815260200190565b60405180910390a3505050565b60006020808352835180602085015260005b81811015610a04578581018301518582016040015282016109e8565b506000604082860101526040601f19601f8301168501019250505092915050565b80356001600160a01b0381168114610a3c57600080fd5b919050565b60008060408385031215610a5457600080fd5b610a5d83610a25565b946020939093013593505050565b600080600060608486031215610a8057600080fd5b610a8984610a25565b9250610a9760208501610a25565b9150604084013590509250925092565b600060208284031215610ab957600080fd5b610ac282610a25565b9392505050565b60008060408385031215610adc57600080fd5b610ae583610a25565b9150610af360208401610a25565b90509250929050565b600181811c90821680610b1057607f821691505b602082108103610b3057634e487b7160e01b600052602260045260246000fd5b50919050565b8082018082111561042b57634e487b7160e01b600052601160045260246000fdfea26469706673582212206d8cda89ba332e52722be11edaad4029c21cef0114732b06495982a4139da6da64736f6c63430008180033a2646970667358221220ac82403e7c70111cc386817fcdf9fd06394842c356c37fb7be6419b2fca15fc364736f6c63430008180033",
  "linkReferences": {},
  "deployedLinkReferences": {}
}