{
  "_format": "hh-sol-artifact-1",
  "contractName": "NovaroClient",
  "sourceName": "contracts/NovaroClient.sol",
  "abi": [
    {
      "inputs": [
        {
          "internalType": "address",
          "name": "_pool",
          "type": "address"
        }
      ],
      "stateMutability": "nonpayable",
      "type": "constructor"
    },
    {
      "inputs": [],
      "name": "EmptyTokenBoundAccount",
      "type": "error"
    },
    {
      "inputs": [],
      "name": "InvalidAddress",
      "type": "error"
    },
    {
      "inputs": [],
      "name": "InvalidDST",
      "type": "error"
    },
    {
      "inputs": [
        {
          "internalType": "address",
          "name": "owner",
          "type": "address"
        }
      ],
      "name": "OwnableInvalidOwner",
      "type": "error"
    },
    {
      "inputs": [
        {
          "internalType": "address",
          "name": "account",
          "type": "address"
        }
      ],
      "name": "OwnableUnauthorizedAccount",
      "type": "error"
    },
    {
      "anonymous": false,
      "inputs": [
        {
          "indexed": true,
          "internalType": "address",
          "name": "owner",
          "type": "address"
        },
        {
          "indexed": true,
          "internalType": "address",
          "name": "boundAccount",
          "type": "address"
        }
      ],
      "name": "AccountAlreadyBound",
      "type": "event"
    },
    {
      "anonymous": false,
      "inputs": [
        {
          "indexed": true,
          "internalType": "address",
          "name": "buyer",
          "type": "address"
        },
        {
          "indexed": true,
          "internalType": "address",
          "name": "token",
          "type": "address"
        },
        {
          "indexed": true,
          "internalType": "uint256",
          "name": "amount",
          "type": "uint256"
        }
      ],
      "name": "BuyFollowerPassToken",
      "type": "event"
    },
    {
      "anonymous": false,
      "inputs": [
        {
          "indexed": true,
          "internalType": "address",
          "name": "owner",
          "type": "address"
        },
        {
          "indexed": true,
          "internalType": "address",
          "name": "boundAccount",
          "type": "address"
        }
      ],
      "name": "CreateAccount",
      "type": "event"
    },
    {
      "anonymous": false,
      "inputs": [
        {
          "indexed": true,
          "internalType": "address",
          "name": "owner",
          "type": "address"
        },
        {
          "indexed": true,
          "internalType": "address",
          "name": "boundAccount",
          "type": "address"
        },
        {
          "indexed": true,
          "internalType": "string",
          "name": "symbol",
          "type": "string"
        },
        {
          "indexed": false,
          "internalType": "string",
          "name": "name",
          "type": "string"
        },
        {
          "indexed": false,
          "internalType": "string",
          "name": "imageUri",
          "type": "string"
        },
        {
          "indexed": false,
          "internalType": "string",
          "name": "des",
          "type": "string"
        }
      ],
      "name": "CreateFollowerPassToken",
      "type": "event"
    },
    {
      "anonymous": false,
      "inputs": [
        {
          "indexed": true,
          "internalType": "address",
          "name": "previousOwner",
          "type": "address"
        },
        {
          "indexed": true,
          "internalType": "address",
          "name": "newOwner",
          "type": "address"
        }
      ],
      "name": "OwnershipTransferred",
      "type": "event"
    },
    {
      "anonymous": false,
      "inputs": [
        {
          "indexed": true,
          "internalType": "address",
          "name": "seller",
          "type": "address"
        },
        {
          "indexed": true,
          "internalType": "address",
          "name": "token",
          "type": "address"
        },
        {
          "indexed": true,
          "internalType": "uint256",
          "name": "amount",
          "type": "uint256"
        }
      ],
      "name": "SellFollowerPassToken",
      "type": "event"
    },
    {
      "inputs": [],
      "name": "NAME",
      "outputs": [
        {
          "internalType": "string",
          "name": "",
          "type": "string"
        }
      ],
      "stateMutability": "view",
      "type": "function"
    },
    {
      "inputs": [
        {
          "internalType": "address",
          "name": "_token",
          "type": "address"
        },
        {
          "internalType": "uint256",
          "name": "_amount",
          "type": "uint256"
        }
      ],
      "name": "buy",
      "outputs": [],
      "stateMutability": "nonpayable",
      "type": "function"
    },
    {
      "inputs": [
        {
          "internalType": "string",
          "name": "_name",
          "type": "string"
        },
        {
          "internalType": "string",
          "name": "_symbol",
          "type": "string"
        },
        {
          "internalType": "string",
          "name": "_imageUrl",
          "type": "string"
        },
        {
          "internalType": "string",
          "name": "_des",
          "type": "string"
        }
      ],
      "name": "createFollowerPassToken",
      "outputs": [],
      "stateMutability": "nonpayable",
      "type": "function"
    },
    {
      "inputs": [
        {
          "internalType": "address",
          "name": "implementation",
          "type": "address"
        },
        {
          "internalType": "uint256",
          "name": "chainId",
          "type": "uint256"
        },
        {
          "internalType": "address",
          "name": "tokenContract",
          "type": "address"
        },
        {
          "internalType": "uint256",
          "name": "tokenId",
          "type": "uint256"
        },
        {
          "internalType": "uint256",
          "name": "salt",
          "type": "uint256"
        },
        {
          "internalType": "bytes",
          "name": "initData",
          "type": "bytes"
        }
      ],
      "name": "createOrFetchAccount",
      "outputs": [
        {
          "internalType": "address",
          "name": "",
          "type": "address"
        }
      ],
      "stateMutability": "nonpayable",
      "type": "function"
    },
    {
      "inputs": [],
      "name": "getAllFollowerPassToken",
      "outputs": [
        {
          "components": [
            {
              "internalType": "address",
              "name": "deployer",
              "type": "address"
            },
            {
              "internalType": "address",
              "name": "boundAccount",
              "type": "address"
            },
            {
              "internalType": "address",
              "name": "token",
              "type": "address"
            },
            {
              "internalType": "string",
              "name": "name",
              "type": "string"
            },
            {
              "internalType": "string",
              "name": "symbol",
              "type": "string"
            },
            {
              "internalType": "string",
              "name": "imageUrl",
              "type": "string"
            },
            {
              "internalType": "string",
              "name": "des",
              "type": "string"
            }
          ],
          "internalType": "struct NovaroDataTypes.FollowerPassTokenData[]",
          "name": "",
          "type": "tuple[]"
        }
      ],
      "stateMutability": "view",
      "type": "function"
    },
    {
      "inputs": [
        {
          "internalType": "address",
          "name": "_owner",
          "type": "address"
        }
      ],
      "name": "getBoundAccount",
      "outputs": [
        {
          "internalType": "address",
          "name": "",
          "type": "address"
        }
      ],
      "stateMutability": "view",
      "type": "function"
    },
    {
      "inputs": [],
      "name": "getDynamicSocialToken",
      "outputs": [
        {
          "internalType": "address",
          "name": "",
          "type": "address"
        }
      ],
      "stateMutability": "view",
      "type": "function"
    },
    {
      "inputs": [],
      "name": "getRegistry",
      "outputs": [
        {
          "internalType": "address",
          "name": "",
          "type": "address"
        }
      ],
      "stateMutability": "view",
      "type": "function"
    },
    {
      "inputs": [
        {
          "internalType": "address",
          "name": "_owner",
          "type": "address"
        }
      ],
      "name": "getSystemIdentifier",
      "outputs": [
        {
          "internalType": "string",
          "name": "",
          "type": "string"
        }
      ],
      "stateMutability": "view",
      "type": "function"
    },
    {
      "inputs": [],
      "name": "getTokenAddresses",
      "outputs": [
        {
          "internalType": "address[]",
          "name": "",
          "type": "address[]"
        }
      ],
      "stateMutability": "view",
      "type": "function"
    },
    {
      "inputs": [
        {
          "internalType": "uint256",
          "name": "_amount",
          "type": "uint256"
        }
      ],
      "name": "offChainFeed",
      "outputs": [],
      "stateMutability": "nonpayable",
      "type": "function"
    },
    {
      "inputs": [],
      "name": "owner",
      "outputs": [
        {
          "internalType": "address",
          "name": "",
          "type": "address"
        }
      ],
      "stateMutability": "view",
      "type": "function"
    },
    {
      "inputs": [],
      "name": "renounceOwnership",
      "outputs": [],
      "stateMutability": "nonpayable",
      "type": "function"
    },
    {
      "inputs": [
        {
          "internalType": "address",
          "name": "_token",
          "type": "address"
        },
        {
          "internalType": "uint256",
          "name": "_amount",
          "type": "uint256"
        }
      ],
      "name": "sell",
      "outputs": [],
      "stateMutability": "nonpayable",
      "type": "function"
    },
    {
      "inputs": [
        {
          "internalType": "address",
          "name": "_dst",
          "type": "address"
        },
        {
          "internalType": "address",
          "name": "_registry",
          "type": "address"
        }
      ],
      "name": "setAddresses",
      "outputs": [],
      "stateMutability": "nonpayable",
      "type": "function"
    },
    {
      "inputs": [
        {
          "internalType": "address",
          "name": "newOwner",
          "type": "address"
        }
      ],
      "name": "transferOwnership",
      "outputs": [],
      "stateMutability": "nonpayable",
      "type": "function"
    }
  ],
  "bytecode": "0x608060405234801561001057600080fd5b50604051620024c5380380620024c5833981016040819052610031916100d6565b338061005757604051631e4fbdf760e01b81526000600482015260240160405180910390fd5b61006081610086565b50600580546001600160a01b0319166001600160a01b0392909216919091179055610106565b600080546001600160a01b038381166001600160a01b0319831681178455604051919092169283917f8be0079c531659141344cd1fd0a4f28419497f9722a3daafe3b4186f6b6457e09190a35050565b6000602082840312156100e857600080fd5b81516001600160a01b03811681146100ff57600080fd5b9392505050565b6123af80620001166000396000f3fe60806040523480156200001157600080fd5b5060043610620001155760003560e01c806390107afe11620000a3578063d530febe116200006e578063d530febe1462000252578063e363e74b1462000281578063ee8c24b81462000298578063f2fde38b14620002b157600080fd5b806390107afe14620001e6578063a3f4df7e14620001fd578063b4697f901462000229578063cce7ec13146200023b57600080fd5b8063715018a611620000e4578063715018a6146200018d57806375bdf63114620001975780638da5cb5b14620001bd5780638dd3beb714620001cf57600080fd5b80634c1bc5ff146200011a5780635ab1bd5314620001335780635bed809b146200015d5780636c197ff51462000176575b600080fd5b620001316200012b3660046200108a565b620002c8565b005b6007546001600160a01b03165b6040516001600160a01b0390911681526020015b60405180910390f35b62000167620005de565b604051620001549190620011a3565b6200013162000187366004620012c8565b620009e3565b6200013162000ac4565b620001ae620001a8366004620012f7565b62000adc565b6040516200015491906200131e565b6000546001600160a01b031662000140565b62000140620001e036600462001333565b62000b90565b62000131620001f7366004620013c1565b62000cdd565b620001ae6040518060400160405280600c81526020016b139bdd985c9bd0db1a595b9d60a21b81525081565b6006546001600160a01b031662000140565b620001316200024c366004620012c8565b62000d15565b6200014062000263366004620012f7565b6001600160a01b039081166000908152600460205260409020541690565b6200013162000292366004620013ff565b62000e72565b620002a262000f05565b60405162000154919062001419565b62000131620002c2366004620012f7565b62000f69565b336000908152600460205260409020546001600160a01b0316801562000301576040516372acb0c760e01b815260040160405180910390fd5b60008989898985604051620003169062001030565b6200032695949392919062001491565b604051809103906000f08015801562000343573d6000803e3d6000fd5b50905060006040518060e00160405280336001600160a01b03168152602001846001600160a01b03168152602001836001600160a01b031681526020018c8c8080601f016020809104026020016040519081016040528093929190818152602001838380828437600092019190915250505090825250604080516020601f8d018190048102820181019092528b815291810191908c908c9081908401838280828437600092019190915250505090825250604080516020601f8b0181900481028201810190925289815291810191908a908a9081908401838280828437600092019190915250505090825250604080516020601f89018190048102820181019092528781529181019190889088908190840183828082843760009201829052509390945250506001805480820182557fb10e2d527612073b26eecdfd717e6a320cf44b4afac2b0732d9fcbe2b7fa0cf60180546001600160a01b03199081166001600160a01b0389811691821790935584526002602081815260409586902088518154851690861617815590880151948101805484169585169590951790945593860151938301805490911693909116929092179091556060830151929350839290915060038201906200051890826200157e565b50608082015160048201906200052f90826200157e565b5060a082015160058201906200054690826200157e565b5060c082015160068201906200055d90826200157e565b50506040516200057291508a908a906200164b565b6040518091039020836001600160a01b0316336001600160a01b03167f51181d00076312588749b05451fccec7bd5ee67387beabcbdb439192c454f2a38e8e8c8c8c8c604051620005c9969594939291906200165b565b60405180910390a45050505050505050505050565b60018054604080516020808402820181019092528281526060936002936000938301828280156200063957602002820191906000526020600020905b81546001600160a01b031681526001909101906020018083116200061a575b505050505090506000815167ffffffffffffffff8111156200065f576200065f620014d7565b604051908082528060200260200182016040528015620006c757816020015b6040805160e081018252600080825260208083018290529282015260608082018190526080820181905260a0820181905260c082015282526000199092019101816200067e5790505b50905060005b8251811015620009db57836000848381518110620006ef57620006ef620016aa565b6020908102919091018101516001600160a01b039081168352828201939093526040918201600020825160e08101845281548516815260018201548516928101929092526002810154909316918101919091526003820180549192916060840191906200075c90620014ed565b80601f01602080910402602001604051908101604052809291908181526020018280546200078a90620014ed565b8015620007db5780601f10620007af57610100808354040283529160200191620007db565b820191906000526020600020905b815481529060010190602001808311620007bd57829003601f168201915b50505050508152602001600482018054620007f690620014ed565b80601f01602080910402602001604051908101604052809291908181526020018280546200082490620014ed565b8015620008755780601f10620008495761010080835404028352916020019162000875565b820191906000526020600020905b8154815290600101906020018083116200085757829003601f168201915b505050505081526020016005820180546200089090620014ed565b80601f0160208091040260200160405190810160405280929190818152602001828054620008be90620014ed565b80156200090f5780601f10620008e3576101008083540402835291602001916200090f565b820191906000526020600020905b815481529060010190602001808311620008f157829003601f168201915b505050505081526020016006820180546200092a90620014ed565b80601f01602080910402602001604051908101604052809291908181526020018280546200095890620014ed565b8015620009a95780601f106200097d57610100808354040283529160200191620009a9565b820191906000526020600020905b8154815290600101906020018083116200098b57829003601f168201915b505050505081525050828281518110620009c757620009c7620016aa565b6020908102919091010152600101620006cd565b509392505050565b6001600160a01b03821662000a0b5760405163e6c4247b60e01b815260040160405180910390fd5b60055460405163a9059cbb60e01b81526001600160a01b03918216600482015260248101839052839182169063a9059cbb906044016020604051808303816000875af115801562000a60573d6000803e3d6000fd5b505050506040513d601f19601f8201168201806040525081019062000a869190620016c0565b5060405182906001600160a01b0385169033907f5533e00c6a6bb36fe95c7c9798e05fd426fc3c7f438fb0b896f1a66d2731a86290600090a4505050565b62000ace62000fb1565b62000ada600062000fe0565b565b6001600160a01b038116600090815260036020526040902080546060919062000b0590620014ed565b80601f016020809104026020016040519081016040528092919081815260200182805462000b3390620014ed565b801562000b845780601f1062000b585761010080835404028352916020019162000b84565b820191906000526020600020905b81548152906001019060200180831162000b6657829003601f168201915b50505050509050919050565b336000908152600460205260408120546001600160a01b0316801562000bee576040516001600160a01b0382169033907fbbbb9ffe5792d4ad2e6de72b841bd59303efce2d9aa93907e7c21b8f6dcf548990600090a3905062000cd2565b60075460405163da7323b360e01b81526000916001600160a01b03169063da7323b39062000c2d908d908d908d908d908d908d908d90600401620016e4565b6020604051808303816000875af115801562000c4d573d6000803e3d6000fd5b505050506040513d601f19601f8201168201806040525081019062000c73919062001724565b6001600160a01b0381811660008181526004602052604080822080546001600160a01b031916948e169490941790935591519293509133917f14a8ec3fa88b43ee6d7a7a0e47e3468f408e39a1cf0be757bb6c81b94e2fdb9e91a39150505b979650505050505050565b62000ce762000fb1565b600680546001600160a01b039384166001600160a01b03199182161790915560078054929093169116179055565b6001600160a01b03821662000d3d5760405163e6c4247b60e01b815260040160405180910390fd5b60405163095ea7b360e01b81523360048201526024810182905282906001600160a01b0382169063095ea7b3906044016020604051808303816000875af115801562000d8d573d6000803e3d6000fd5b505050506040513d601f19601f8201168201806040525081019062000db39190620016c0565b506005546040516323b872dd60e01b81526001600160a01b03918216600482015233602482015260448101849052908216906323b872dd906064016020604051808303816000875af115801562000e0e573d6000803e3d6000fd5b505050506040513d601f19601f8201168201806040525081019062000e349190620016c0565b5060405182906001600160a01b0385169033907fcaaeedf613c8ea934468db0b7d5220504ca74313c79fe6651b3cd17176c971e090600090a4505050565b6006546001600160a01b031662000e9c576040516320fe427160e21b815260040160405180910390fd5b6006546040516333aded3760e01b8152336004820152602481018390526001600160a01b03909116906333aded3790604401600060405180830381600087803b15801562000ee957600080fd5b505af115801562000efe573d6000803e3d6000fd5b5050505050565b6060600180548060200260200160405190810160405280929190818152602001828054801562000f5f57602002820191906000526020600020905b81546001600160a01b0316815260019091019060200180831162000f40575b5050505050905090565b62000f7362000fb1565b6001600160a01b03811662000fa357604051631e4fbdf760e01b8152600060048201526024015b60405180910390fd5b62000fae8162000fe0565b50565b6000546001600160a01b0316331462000ada5760405163118cdaa760e01b815233600482015260240162000f9a565b600080546001600160a01b038381166001600160a01b0319831681178455604051919092169283917f8be0079c531659141344cd1fd0a4f28419497f9722a3daafe3b4186f6b6457e09190a35050565b610c35806200174583390190565b60008083601f8401126200105157600080fd5b50813567ffffffffffffffff8111156200106a57600080fd5b6020830191508360208285010111156200108357600080fd5b9250929050565b6000806000806000806000806080898b031215620010a757600080fd5b883567ffffffffffffffff80821115620010c057600080fd5b620010ce8c838d016200103e565b909a50985060208b0135915080821115620010e857600080fd5b620010f68c838d016200103e565b909850965060408b01359150808211156200111057600080fd5b6200111e8c838d016200103e565b909650945060608b01359150808211156200113857600080fd5b50620011478b828c016200103e565b999c989b5096995094979396929594505050565b6000815180845260005b81811015620011835760208185018101518683018201520162001165565b506000602082860101526020601f19601f83011685010191505092915050565b600060208083018184528085518083526040925060408601915060408160051b87010184880160005b83811015620012a457888303603f19018552815180516001600160a01b031684528781015160e090620012098a8701826001600160a01b03169052565b50878201516001600160a01b03168589015260608083015181870183905262001235838801826200115b565b92505050608080830151868303828801526200125283826200115b565b9250505060a080830151868303828801526200126f83826200115b565b9250505060c080830151925085820381870152506200128f81836200115b565b968901969450505090860190600101620011cc565b509098975050505050505050565b6001600160a01b038116811462000fae57600080fd5b60008060408385031215620012dc57600080fd5b8235620012e981620012b2565b946020939093013593505050565b6000602082840312156200130a57600080fd5b81356200131781620012b2565b9392505050565b6020815260006200131760208301846200115b565b600080600080600080600060c0888a0312156200134f57600080fd5b87356200135c81620012b2565b96506020880135955060408801356200137581620012b2565b9450606088013593506080880135925060a088013567ffffffffffffffff811115620013a057600080fd5b620013ae8a828b016200103e565b989b979a50959850939692959293505050565b60008060408385031215620013d557600080fd5b8235620013e281620012b2565b91506020830135620013f481620012b2565b809150509250929050565b6000602082840312156200141257600080fd5b5035919050565b6020808252825182820181905260009190848201906040850190845b818110156200145c5783516001600160a01b03168352928401929184019160010162001435565b50909695505050505050565b81835281816020850137506000828201602090810191909152601f909101601f19169091010190565b606081526000620014a760608301878962001468565b8281036020840152620014bc81868862001468565b91505060018060a01b03831660408301529695505050505050565b634e487b7160e01b600052604160045260246000fd5b600181811c908216806200150257607f821691505b6020821081036200152357634e487b7160e01b600052602260045260246000fd5b50919050565b601f82111562001579576000816000526020600020601f850160051c81016020861015620015545750805b601f850160051c820191505b81811015620015755782815560010162001560565b5050505b505050565b815167ffffffffffffffff8111156200159b576200159b620014d7565b620015b381620015ac8454620014ed565b8462001529565b602080601f831160018114620015eb5760008415620015d25750858301515b600019600386901b1c1916600185901b17855562001575565b600085815260208120601f198616915b828110156200161c57888601518255948401946001909101908401620015fb565b50858210156200163b5787850151600019600388901b60f8161c191681555b5050505050600190811b01905550565b8183823760009101908152919050565b6060815260006200167160608301888a62001468565b82810360208401526200168681878962001468565b905082810360408401526200169d81858762001468565b9998505050505050505050565b634e487b7160e01b600052603260045260246000fd5b600060208284031215620016d357600080fd5b815180151581146200131757600080fd5b600060018060a01b03808a16835288602084015280881660408401525085606083015284608083015260c060a08301526200169d60c08301848662001468565b6000602082840312156200173757600080fd5b81516200131781620012b256fe60806040523480156200001157600080fd5b5060405162000c3538038062000c358339810160408190526200003491620002b6565b82826003620000448382620003d4565b506004620000538282620003d4565b5050506200007081670de0b6b3a76400006200007960201b60201c565b505050620004c8565b6001600160a01b038216620000a95760405163ec442f0560e01b8152600060048201526024015b60405180910390fd5b620000b760008383620000bb565b5050565b6001600160a01b038316620000ea578060026000828254620000de9190620004a0565b909155506200015e9050565b6001600160a01b038316600090815260208190526040902054818110156200013f5760405163391434e360e21b81526001600160a01b03851660048201526024810182905260448101839052606401620000a0565b6001600160a01b03841660009081526020819052604090209082900390555b6001600160a01b0382166200017c576002805482900390556200019b565b6001600160a01b03821660009081526020819052604090208054820190555b816001600160a01b0316836001600160a01b03167fddf252ad1be2c89b69c2b068fc378daa952ba7f163c4a11628f55a4df523b3ef83604051620001e191815260200190565b60405180910390a3505050565b634e487b7160e01b600052604160045260246000fd5b600082601f8301126200021657600080fd5b81516001600160401b0380821115620002335762000233620001ee565b604051601f8301601f19908116603f011681019082821181831017156200025e576200025e620001ee565b81604052838152602092508660208588010111156200027c57600080fd5b600091505b83821015620002a0578582018301518183018401529082019062000281565b6000602085830101528094505050505092915050565b600080600060608486031215620002cc57600080fd5b83516001600160401b0380821115620002e457600080fd5b620002f28783880162000204565b945060208601519150808211156200030957600080fd5b50620003188682870162000204565b604086015190935090506001600160a01b03811681146200033857600080fd5b809150509250925092565b600181811c908216806200035857607f821691505b6020821081036200037957634e487b7160e01b600052602260045260246000fd5b50919050565b601f821115620003cf576000816000526020600020601f850160051c81016020861015620003aa5750805b601f850160051c820191505b81811015620003cb57828155600101620003b6565b5050505b505050565b81516001600160401b03811115620003f057620003f0620001ee565b620004088162000401845462000343565b846200037f565b602080601f831160018114620004405760008415620004275750858301515b600019600386901b1c1916600185901b178555620003cb565b600085815260208120601f198616915b82811015620004715788860151825594840194600190910190840162000450565b5085821015620004905787850151600019600388901b60f8161c191681555b5050505050600190811b01905550565b80820180821115620004c257634e487b7160e01b600052601160045260246000fd5b92915050565b61075d80620004d86000396000f3fe608060405234801561001057600080fd5b506004361061009e5760003560e01c806370a082311161006657806370a082311461011857806395d89b4114610141578063a3f4df7e14610149578063a9059cbb1461017a578063dd62ed3e1461018d57600080fd5b806306fdde03146100a3578063095ea7b3146100c157806318160ddd146100e457806323b872dd146100f6578063313ce56714610109575b600080fd5b6100ab6101c6565b6040516100b891906105a6565b60405180910390f35b6100d46100cf366004610611565b610258565b60405190151581526020016100b8565b6002545b6040519081526020016100b8565b6100d461010436600461063b565b610272565b604051601281526020016100b8565b6100e8610126366004610677565b6001600160a01b031660009081526020819052604090205490565b6100ab610296565b6100ab604051806040016040528060128152602001712337b63637bbb2b92830b9b9902a37b5b2b760711b81525081565b6100d4610188366004610611565b6102a5565b6100e861019b366004610699565b6001600160a01b03918216600090815260016020908152604080832093909416825291909152205490565b6060600380546101d5906106cc565b80601f0160208091040260200160405190810160405280929190818152602001828054610201906106cc565b801561024e5780601f106102235761010080835404028352916020019161024e565b820191906000526020600020905b81548152906001019060200180831161023157829003601f168201915b5050505050905090565b6000336102668185856102b3565b60019150505b92915050565b6000336102808582856102c5565b61028b858585610348565b506001949350505050565b6060600480546101d5906106cc565b600033610266818585610348565b6102c083838360016103a7565b505050565b6001600160a01b038381166000908152600160209081526040808320938616835292905220546000198114610342578181101561033357604051637dc7a0d960e11b81526001600160a01b038416600482015260248101829052604481018390526064015b60405180910390fd5b610342848484840360006103a7565b50505050565b6001600160a01b03831661037257604051634b637e8f60e11b81526000600482015260240161032a565b6001600160a01b03821661039c5760405163ec442f0560e01b81526000600482015260240161032a565b6102c083838361047c565b6001600160a01b0384166103d15760405163e602df0560e01b81526000600482015260240161032a565b6001600160a01b0383166103fb57604051634a1406b160e11b81526000600482015260240161032a565b6001600160a01b038085166000908152600160209081526040808320938716835292905220829055801561034257826001600160a01b0316846001600160a01b03167f8c5be1e5ebec7d5bd14f71427d1e84f3dd0314c0f7b2291e5b200ac8c7c3b9258460405161046e91815260200190565b60405180910390a350505050565b6001600160a01b0383166104a757806002600082825461049c9190610706565b909155506105199050565b6001600160a01b038316600090815260208190526040902054818110156104fa5760405163391434e360e21b81526001600160a01b0385166004820152602481018290526044810183905260640161032a565b6001600160a01b03841660009081526020819052604090209082900390555b6001600160a01b03821661053557600280548290039055610554565b6001600160a01b03821660009081526020819052604090208054820190555b816001600160a01b0316836001600160a01b03167fddf252ad1be2c89b69c2b068fc378daa952ba7f163c4a11628f55a4df523b3ef8360405161059991815260200190565b60405180910390a3505050565b60006020808352835180602085015260005b818110156105d4578581018301518582016040015282016105b8565b506000604082860101526040601f19601f8301168501019250505092915050565b80356001600160a01b038116811461060c57600080fd5b919050565b6000806040838503121561062457600080fd5b61062d836105f5565b946020939093013593505050565b60008060006060848603121561065057600080fd5b610659846105f5565b9250610667602085016105f5565b9150604084013590509250925092565b60006020828403121561068957600080fd5b610692826105f5565b9392505050565b600080604083850312156106ac57600080fd5b6106b5836105f5565b91506106c3602084016105f5565b90509250929050565b600181811c908216806106e057607f821691505b60208210810361070057634e487b7160e01b600052602260045260246000fd5b50919050565b8082018082111561026c57634e487b7160e01b600052601160045260246000fdfea264697066735822122088cf9cf839cc182fbc2619491c883e7aa2a65dc3e428ee797371024e4dc25d8f64736f6c63430008180033a2646970667358221220f90290f347e0a280727425e6dc059ceca24c858d691f648ceeb06daf3afe40b264736f6c63430008180033",
  "linkReferences": {},
  "deployedLinkReferences": {}
}