{
  "_format": "hh-sol-artifact-1",
  "contractName": "NovaroClient",
  "sourceName": "contracts/NovaroClient.sol",
  "abi": [
    {
      "inputs": [
        {
          "internalType": "address",
          "name": "_pool",
          "type": "address"
        }
      ],
      "stateMutability": "nonpayable",
      "type": "constructor"
    },
    {
      "inputs": [],
      "name": "EmptyTokenBoundAccount",
      "type": "error"
    },
    {
      "inputs": [],
      "name": "InvalidDST",
      "type": "error"
    },
    {
      "inputs": [],
      "name": "InvalidERC6551Registry",
      "type": "error"
    },
    {
      "inputs": [],
      "name": "InvalidTokenOwner",
      "type": "error"
    },
    {
      "inputs": [
        {
          "internalType": "address",
          "name": "owner",
          "type": "address"
        }
      ],
      "name": "OwnableInvalidOwner",
      "type": "error"
    },
    {
      "inputs": [
        {
          "internalType": "address",
          "name": "account",
          "type": "address"
        }
      ],
      "name": "OwnableUnauthorizedAccount",
      "type": "error"
    },
    {
      "anonymous": false,
      "inputs": [
        {
          "indexed": true,
          "internalType": "address",
          "name": "owner",
          "type": "address"
        },
        {
          "indexed": true,
          "internalType": "address",
          "name": "boundAccount",
          "type": "address"
        }
      ],
      "name": "AccountAlreadyBound",
      "type": "event"
    },
    {
      "anonymous": false,
      "inputs": [
        {
          "indexed": true,
          "internalType": "address",
          "name": "owner",
          "type": "address"
        },
        {
          "indexed": true,
          "internalType": "address",
          "name": "boundAccount",
          "type": "address"
        }
      ],
      "name": "CreateAccount",
      "type": "event"
    },
    {
      "anonymous": false,
      "inputs": [
        {
          "indexed": true,
          "internalType": "address",
          "name": "owner",
          "type": "address"
        },
        {
          "indexed": true,
          "internalType": "address",
          "name": "boundAccount",
          "type": "address"
        },
        {
          "indexed": true,
          "internalType": "string",
          "name": "symbol",
          "type": "string"
        },
        {
          "indexed": false,
          "internalType": "string",
          "name": "name",
          "type": "string"
        },
        {
          "indexed": false,
          "internalType": "string",
          "name": "sourceId",
          "type": "string"
        },
        {
          "indexed": false,
          "internalType": "string",
          "name": "des",
          "type": "string"
        }
      ],
      "name": "CreateFollowerPassToken",
      "type": "event"
    },
    {
      "anonymous": false,
      "inputs": [
        {
          "indexed": true,
          "internalType": "address",
          "name": "previousOwner",
          "type": "address"
        },
        {
          "indexed": true,
          "internalType": "address",
          "name": "newOwner",
          "type": "address"
        }
      ],
      "name": "OwnershipTransferred",
      "type": "event"
    },
    {
      "inputs": [],
      "name": "NAME",
      "outputs": [
        {
          "internalType": "string",
          "name": "",
          "type": "string"
        }
      ],
      "stateMutability": "view",
      "type": "function"
    },
    {
      "inputs": [
        {
          "internalType": "string",
          "name": "_name",
          "type": "string"
        },
        {
          "internalType": "string",
          "name": "_symbol",
          "type": "string"
        },
        {
          "internalType": "string",
          "name": "_sourceId",
          "type": "string"
        },
        {
          "internalType": "string",
          "name": "_des",
          "type": "string"
        }
      ],
      "name": "createFollowerPassToken",
      "outputs": [],
      "stateMutability": "nonpayable",
      "type": "function"
    },
    {
      "inputs": [
        {
          "internalType": "address",
          "name": "implementation",
          "type": "address"
        },
        {
          "internalType": "uint256",
          "name": "chainId",
          "type": "uint256"
        },
        {
          "internalType": "address",
          "name": "tokenContract",
          "type": "address"
        },
        {
          "internalType": "uint256",
          "name": "tokenId",
          "type": "uint256"
        },
        {
          "internalType": "uint256",
          "name": "salt",
          "type": "uint256"
        },
        {
          "internalType": "bytes",
          "name": "initData",
          "type": "bytes"
        }
      ],
      "name": "createOrFetchAccount",
      "outputs": [
        {
          "internalType": "address",
          "name": "",
          "type": "address"
        }
      ],
      "stateMutability": "nonpayable",
      "type": "function"
    },
    {
      "inputs": [],
      "name": "getAllFollowerPassToken",
      "outputs": [
        {
          "components": [
            {
              "internalType": "address",
              "name": "deployer",
              "type": "address"
            },
            {
              "internalType": "address",
              "name": "boundAccount",
              "type": "address"
            },
            {
              "internalType": "address",
              "name": "token",
              "type": "address"
            },
            {
              "internalType": "string",
              "name": "name",
              "type": "string"
            },
            {
              "internalType": "string",
              "name": "symbol",
              "type": "string"
            },
            {
              "internalType": "string",
              "name": "sourceId",
              "type": "string"
            },
            {
              "internalType": "string",
              "name": "des",
              "type": "string"
            }
          ],
          "internalType": "struct NovaroDataTypes.FollowerPassTokenData[]",
          "name": "",
          "type": "tuple[]"
        }
      ],
      "stateMutability": "view",
      "type": "function"
    },
    {
      "inputs": [
        {
          "internalType": "address",
          "name": "_owner",
          "type": "address"
        }
      ],
      "name": "getBoundAccount",
      "outputs": [
        {
          "internalType": "address",
          "name": "",
          "type": "address"
        }
      ],
      "stateMutability": "view",
      "type": "function"
    },
    {
      "inputs": [],
      "name": "getDynamicSocialToken",
      "outputs": [
        {
          "internalType": "address",
          "name": "",
          "type": "address"
        }
      ],
      "stateMutability": "view",
      "type": "function"
    },
    {
      "inputs": [],
      "name": "getRegistry",
      "outputs": [
        {
          "internalType": "address",
          "name": "",
          "type": "address"
        }
      ],
      "stateMutability": "view",
      "type": "function"
    },
    {
      "inputs": [
        {
          "internalType": "address",
          "name": "_owner",
          "type": "address"
        }
      ],
      "name": "getSystemIdentifier",
      "outputs": [
        {
          "internalType": "string",
          "name": "",
          "type": "string"
        }
      ],
      "stateMutability": "view",
      "type": "function"
    },
    {
      "inputs": [],
      "name": "getTokenAddresses",
      "outputs": [
        {
          "internalType": "address[]",
          "name": "",
          "type": "address[]"
        }
      ],
      "stateMutability": "view",
      "type": "function"
    },
    {
      "inputs": [
        {
          "internalType": "uint256",
          "name": "_amount",
          "type": "uint256"
        }
      ],
      "name": "offChainFeed",
      "outputs": [],
      "stateMutability": "nonpayable",
      "type": "function"
    },
    {
      "inputs": [],
      "name": "owner",
      "outputs": [
        {
          "internalType": "address",
          "name": "",
          "type": "address"
        }
      ],
      "stateMutability": "view",
      "type": "function"
    },
    {
      "inputs": [],
      "name": "renounceOwnership",
      "outputs": [],
      "stateMutability": "nonpayable",
      "type": "function"
    },
    {
      "inputs": [
        {
          "internalType": "address",
          "name": "_dst",
          "type": "address"
        }
      ],
      "name": "setDynamicSocialToken",
      "outputs": [],
      "stateMutability": "nonpayable",
      "type": "function"
    },
    {
      "inputs": [
        {
          "internalType": "address",
          "name": "_registry",
          "type": "address"
        }
      ],
      "name": "setRegistry",
      "outputs": [],
      "stateMutability": "nonpayable",
      "type": "function"
    },
    {
      "inputs": [
        {
          "internalType": "address",
          "name": "newOwner",
          "type": "address"
        }
      ],
      "name": "transferOwnership",
      "outputs": [],
      "stateMutability": "nonpayable",
      "type": "function"
    }
  ],
  "bytecode": "0x608060405234801561001057600080fd5b5060405161249b38038061249b83398101604081905261002f916100d4565b338061005557604051631e4fbdf760e01b81526000600482015260240160405180910390fd5b61005e81610084565b50600580546001600160a01b0319166001600160a01b0392909216919091179055610104565b600080546001600160a01b038381166001600160a01b0319831681178455604051919092169283917f8be0079c531659141344cd1fd0a4f28419497f9722a3daafe3b4186f6b6457e09190a35050565b6000602082840312156100e657600080fd5b81516001600160a01b03811681146100fd57600080fd5b9392505050565b612388806101136000396000f3fe60806040523480156200001157600080fd5b5060043610620001095760003560e01c80638dd3beb711620000a3578063d530febe116200006e578063d530febe146200022f578063e363e74b146200025e578063ee8c24b81462000275578063f2fde38b146200028e57600080fd5b80638dd3beb714620001c3578063a3f4df7e14620001da578063a91ee0dc1462000206578063b4697f90146200021d57600080fd5b80635bed809b11620000e45780635bed809b1462000168578063715018a6146200018157806375bdf631146200018b5780638da5cb5b14620001b157600080fd5b80633e06a0e0146200010e5780634c1bc5ff14620001275780635ab1bd53146200013e575b600080fd5b620001256200011f36600462000ece565b620002a5565b005b620001256200013836600462000f41565b620002d1565b6007546001600160a01b03165b6040516001600160a01b0390911681526020015b60405180910390f35b62000172620005e6565b6040516200015f91906200105a565b62000125620009eb565b620001a26200019c36600462000ece565b62000a03565b6040516200015f919062001169565b6000546001600160a01b03166200014b565b6200014b620001d43660046200117e565b62000ab7565b620001a26040518060400160405280600c81526020016b139bdd985c9bd0db1a595b9d60a21b81525081565b620001256200021736600462000ece565b62000cc0565b6006546001600160a01b03166200014b565b6200014b6200024036600462000ece565b6001600160a01b039081166000908152600460205260409020541690565b620001256200026f3660046200120c565b62000cec565b6200027f62000d7f565b6040516200015f919062001226565b620001256200029f36600462000ece565b62000de3565b620002af62000e2b565b600680546001600160a01b0319166001600160a01b0392909216919091179055565b336000908152600460205260409020546001600160a01b03168062000309576040516372acb0c760e01b815260040160405180910390fd5b600089898989336040516200031e9062000eaa565b6200032e9594939291906200129e565b604051809103906000f0801580156200034b573d6000803e3d6000fd5b50905060006040518060e00160405280336001600160a01b03168152602001846001600160a01b03168152602001836001600160a01b031681526020018c8c8080601f016020809104026020016040519081016040528093929190818152602001838380828437600092019190915250505090825250604080516020601f8d018190048102820181019092528b815291810191908c908c9081908401838280828437600092019190915250505090825250604080516020601f8b0181900481028201810190925289815291810191908a908a9081908401838280828437600092019190915250505090825250604080516020601f89018190048102820181019092528781529181019190889088908190840183828082843760009201829052509390945250506001805480820182557fb10e2d527612073b26eecdfd717e6a320cf44b4afac2b0732d9fcbe2b7fa0cf60180546001600160a01b03199081166001600160a01b0389811691821790935584526002602081815260409586902088518154851690861617815590880151948101805484169585169590951790945593860151938301805490911693909116929092179091556060830151929350839290915060038201906200052090826200138b565b50608082015160048201906200053790826200138b565b5060a082015160058201906200054e90826200138b565b5060c082015160068201906200056590826200138b565b50506040516200057a91508a908a9062001458565b6040518091039020836001600160a01b0316336001600160a01b03167f51181d00076312588749b05451fccec7bd5ee67387beabcbdb439192c454f2a38e8e8c8c8c8c604051620005d19695949392919062001468565b60405180910390a45050505050505050505050565b60018054604080516020808402820181019092528281526060936002936000938301828280156200064157602002820191906000526020600020905b81546001600160a01b0316815260019091019060200180831162000622575b505050505090506000815167ffffffffffffffff811115620006675762000667620012e4565b604051908082528060200260200182016040528015620006cf57816020015b6040805160e081018252600080825260208083018290529282015260608082018190526080820181905260a0820181905260c08201528252600019909201910181620006865790505b50905060005b8251811015620009e357836000848381518110620006f757620006f7620014b7565b6020908102919091018101516001600160a01b039081168352828201939093526040918201600020825160e08101845281548516815260018201548516928101929092526002810154909316918101919091526003820180549192916060840191906200076490620012fa565b80601f01602080910402602001604051908101604052809291908181526020018280546200079290620012fa565b8015620007e35780601f10620007b757610100808354040283529160200191620007e3565b820191906000526020600020905b815481529060010190602001808311620007c557829003601f168201915b50505050508152602001600482018054620007fe90620012fa565b80601f01602080910402602001604051908101604052809291908181526020018280546200082c90620012fa565b80156200087d5780601f1062000851576101008083540402835291602001916200087d565b820191906000526020600020905b8154815290600101906020018083116200085f57829003601f168201915b505050505081526020016005820180546200089890620012fa565b80601f0160208091040260200160405190810160405280929190818152602001828054620008c690620012fa565b8015620009175780601f10620008eb5761010080835404028352916020019162000917565b820191906000526020600020905b815481529060010190602001808311620008f957829003601f168201915b505050505081526020016006820180546200093290620012fa565b80601f01602080910402602001604051908101604052809291908181526020018280546200096090620012fa565b8015620009b15780601f106200098557610100808354040283529160200191620009b1565b820191906000526020600020905b8154815290600101906020018083116200099357829003601f168201915b505050505081525050828281518110620009cf57620009cf620014b7565b6020908102919091010152600101620006d5565b509392505050565b620009f562000e2b565b62000a01600062000e5a565b565b6001600160a01b038116600090815260036020526040902080546060919062000a2c90620012fa565b80601f016020809104026020016040519081016040528092919081815260200182805462000a5a90620012fa565b801562000aab5780601f1062000a7f5761010080835404028352916020019162000aab565b820191906000526020600020905b81548152906001019060200180831162000a8d57829003601f168201915b50505050509050919050565b336000908152600460205260408120546001600160a01b0316801562000b15576040516001600160a01b0382169033907fbbbb9ffe5792d4ad2e6de72b841bd59303efce2d9aa93907e7c21b8f6dcf548990600090a3905062000cb5565b6007546001600160a01b031662000b3e576040516246a29560e81b815260040160405180910390fd5b6006546040516331a9108f60e11b81526004810188905233916001600160a01b031690636352211e90602401602060405180830381865afa15801562000b88573d6000803e3d6000fd5b505050506040513d601f19601f8201168201806040525081019062000bae9190620014cd565b6001600160a01b03161462000bd65760405163153e35b760e11b815260040160405180910390fd5b60075460405163da7323b360e01b81526000916001600160a01b03169063da7323b39062000c15908d908d908d908d908d908d908d90600401620014ed565b6020604051808303816000875af115801562000c35573d6000803e3d6000fd5b505050506040513d601f19601f8201168201806040525081019062000c5b9190620014cd565b3360008181526004602052604080822080546001600160a01b0319166001600160a01b0386169081179091559051939450927f14a8ec3fa88b43ee6d7a7a0e47e3468f408e39a1cf0be757bb6c81b94e2fdb9e9190a39150505b979650505050505050565b62000cca62000e2b565b600780546001600160a01b0319166001600160a01b0392909216919091179055565b6006546001600160a01b031662000d16576040516320fe427160e21b815260040160405180910390fd5b6006546040516333aded3760e01b8152336004820152602481018390526001600160a01b03909116906333aded3790604401600060405180830381600087803b15801562000d6357600080fd5b505af115801562000d78573d6000803e3d6000fd5b5050505050565b6060600180548060200260200160405190810160405280929190818152602001828054801562000dd957602002820191906000526020600020905b81546001600160a01b0316815260019091019060200180831162000dba575b5050505050905090565b62000ded62000e2b565b6001600160a01b03811662000e1d57604051631e4fbdf760e01b8152600060048201526024015b60405180910390fd5b62000e288162000e5a565b50565b6000546001600160a01b0316331462000a015760405163118cdaa760e01b815233600482015260240162000e14565b600080546001600160a01b038381166001600160a01b0319831681178455604051919092169283917f8be0079c531659141344cd1fd0a4f28419497f9722a3daafe3b4186f6b6457e09190a35050565b610e25806200152e83390190565b6001600160a01b038116811462000e2857600080fd5b60006020828403121562000ee157600080fd5b813562000eee8162000eb8565b9392505050565b60008083601f84011262000f0857600080fd5b50813567ffffffffffffffff81111562000f2157600080fd5b60208301915083602082850101111562000f3a57600080fd5b9250929050565b6000806000806000806000806080898b03121562000f5e57600080fd5b883567ffffffffffffffff8082111562000f7757600080fd5b62000f858c838d0162000ef5565b909a50985060208b013591508082111562000f9f57600080fd5b62000fad8c838d0162000ef5565b909850965060408b013591508082111562000fc757600080fd5b62000fd58c838d0162000ef5565b909650945060608b013591508082111562000fef57600080fd5b5062000ffe8b828c0162000ef5565b999c989b5096995094979396929594505050565b6000815180845260005b818110156200103a576020818501810151868301820152016200101c565b506000602082860101526020601f19601f83011685010191505092915050565b600060208083018184528085518083526040925060408601915060408160051b87010184880160005b838110156200115b57888303603f19018552815180516001600160a01b031684528781015160e090620010c08a8701826001600160a01b03169052565b50878201516001600160a01b031685890152606080830151818701839052620010ec8388018262001012565b925050506080808301518683038288015262001109838262001012565b9250505060a0808301518683038288015262001126838262001012565b9250505060c0808301519250858203818701525062001146818362001012565b96890196945050509086019060010162001083565b509098975050505050505050565b60208152600062000eee602083018462001012565b600080600080600080600060c0888a0312156200119a57600080fd5b8735620011a78162000eb8565b9650602088013595506040880135620011c08162000eb8565b9450606088013593506080880135925060a088013567ffffffffffffffff811115620011eb57600080fd5b620011f98a828b0162000ef5565b989b979a50959850939692959293505050565b6000602082840312156200121f57600080fd5b5035919050565b6020808252825182820181905260009190848201906040850190845b81811015620012695783516001600160a01b03168352928401929184019160010162001242565b50909695505050505050565b81835281816020850137506000828201602090810191909152601f909101601f19169091010190565b606081526000620012b460608301878962001275565b8281036020840152620012c981868862001275565b91505060018060a01b03831660408301529695505050505050565b634e487b7160e01b600052604160045260246000fd5b600181811c908216806200130f57607f821691505b6020821081036200133057634e487b7160e01b600052602260045260246000fd5b50919050565b601f82111562001386576000816000526020600020601f850160051c81016020861015620013615750805b601f850160051c820191505b8181101562001382578281556001016200136d565b5050505b505050565b815167ffffffffffffffff811115620013a857620013a8620012e4565b620013c081620013b98454620012fa565b8462001336565b602080601f831160018114620013f85760008415620013df5750858301515b600019600386901b1c1916600185901b17855562001382565b600085815260208120601f198616915b82811015620014295788860151825594840194600190910190840162001408565b5085821015620014485787850151600019600388901b60f8161c191681555b5050505050600190811b01905550565b8183823760009101908152919050565b6060815260006200147e60608301888a62001275565b82810360208401526200149381878962001275565b90508281036040840152620014aa81858762001275565b9998505050505050505050565b634e487b7160e01b600052603260045260246000fd5b600060208284031215620014e057600080fd5b815162000eee8162000eb8565b600060018060a01b03808a16835288602084015280881660408401525085606083015284608083015260c060a0830152620014aa60c0830184866200127556fe608060405260405162000e2538038062000e258339810160408190526200002691620002a8565b82826003620000368382620003c6565b506004620000458282620003c6565b5050506200006281670de0b6b3a76400006200006b60201b60201c565b505050620004ba565b6001600160a01b0382166200009b5760405163ec442f0560e01b8152600060048201526024015b60405180910390fd5b620000a960008383620000ad565b5050565b6001600160a01b038316620000dc578060026000828254620000d0919062000492565b90915550620001509050565b6001600160a01b03831660009081526020819052604090205481811015620001315760405163391434e360e21b81526001600160a01b0385166004820152602481018290526044810183905260640162000092565b6001600160a01b03841660009081526020819052604090209082900390555b6001600160a01b0382166200016e576002805482900390556200018d565b6001600160a01b03821660009081526020819052604090208054820190555b816001600160a01b0316836001600160a01b03167fddf252ad1be2c89b69c2b068fc378daa952ba7f163c4a11628f55a4df523b3ef83604051620001d391815260200190565b60405180910390a3505050565b634e487b7160e01b600052604160045260246000fd5b600082601f8301126200020857600080fd5b81516001600160401b0380821115620002255762000225620001e0565b604051601f8301601f19908116603f01168101908282118183101715620002505762000250620001e0565b81604052838152602092508660208588010111156200026e57600080fd5b600091505b8382101562000292578582018301518183018401529082019062000273565b6000602085830101528094505050505092915050565b600080600060608486031215620002be57600080fd5b83516001600160401b0380821115620002d657600080fd5b620002e487838801620001f6565b94506020860151915080821115620002fb57600080fd5b506200030a86828701620001f6565b604086015190935090506001600160a01b03811681146200032a57600080fd5b809150509250925092565b600181811c908216806200034a57607f821691505b6020821081036200036b57634e487b7160e01b600052602260045260246000fd5b50919050565b601f821115620003c1576000816000526020600020601f850160051c810160208610156200039c5750805b601f850160051c820191505b81811015620003bd57828155600101620003a8565b5050505b505050565b81516001600160401b03811115620003e257620003e2620001e0565b620003fa81620003f3845462000335565b8462000371565b602080601f831160018114620004325760008415620004195750858301515b600019600386901b1c1916600185901b178555620003bd565b600085815260208120601f198616915b82811015620004635788860151825594840194600190910190840162000442565b5085821015620004825787850151600019600388901b60f8161c191681555b5050505050600190811b01905550565b80820180821115620004b457634e487b7160e01b600052601160045260246000fd5b92915050565b61095b80620004ca6000396000f3fe6080604052600436106100a75760003560e01c806370a082311161006457806370a082311461018457806395d89b41146101ba578063a3f4df7e146101cf578063a9059cbb1461020d578063cce7ec131461022d578063dd62ed3e1461024057600080fd5b806306fdde03146100ac578063095ea7b3146100d757806318160ddd1461010757806323b872dd14610126578063313ce567146101465780636c197ff514610162575b600080fd5b3480156100b857600080fd5b506100c1610286565b6040516100ce91906107a4565b60405180910390f35b3480156100e357600080fd5b506100f76100f236600461080f565b610318565b60405190151581526020016100ce565b34801561011357600080fd5b506002545b6040519081526020016100ce565b34801561013257600080fd5b506100f7610141366004610839565b610332565b34801561015257600080fd5b50604051601281526020016100ce565b34801561016e57600080fd5b5061018261017d36600461080f565b610356565b005b34801561019057600080fd5b5061011861019f366004610875565b6001600160a01b031660009081526020819052604090205490565b3480156101c657600080fd5b506100c16103bb565b3480156101db57600080fd5b506100c1604051806040016040528060128152602001712337b63637bbb2b92830b9b9902a37b5b2b760711b81525081565b34801561021957600080fd5b506100f761022836600461080f565b6103ca565b61018261023b36600461080f565b6103d8565b34801561024c57600080fd5b5061011861025b366004610897565b6001600160a01b03918216600090815260016020908152604080832093909416825291909152205490565b606060038054610295906108ca565b80601f01602080910402602001604051908101604052809291908181526020018280546102c1906108ca565b801561030e5780601f106102e35761010080835404028352916020019161030e565b820191906000526020600020905b8154815290600101906020018083116102f157829003601f168201915b5050505050905090565b6000336103268185856104b6565b60019150505b92915050565b6000336103408582856104c8565b61034b858585610546565b506001949350505050565b6001600160a01b03821661037d5760405163e6c4247b60e01b815260040160405180910390fd5b61038782826103ca565b506040518190309033907f5533e00c6a6bb36fe95c7c9798e05fd426fc3c7f438fb0b896f1a66d2731a86290600090a45050565b606060048054610295906108ca565b600033610326818585610546565b6001600160a01b0382166103ff5760405163e6c4247b60e01b815260040160405180910390fd5b6040516000906001600160a01b038416903480156108fc029184818181858888f193505050509050806104795760405162461bcd60e51b815260206004820152601c60248201527f4661696c656420746f2073656e6420657468657220746f20706f6f6c0000000060448201526064015b60405180910390fd5b604051829033906001600160a01b038616907fcaaeedf613c8ea934468db0b7d5220504ca74313c79fe6651b3cd17176c971e090600090a4505050565b6104c383838360016105a5565b505050565b6001600160a01b038381166000908152600160209081526040808320938616835292905220546000198114610540578181101561053157604051637dc7a0d960e11b81526001600160a01b03841660048201526024810182905260448101839052606401610470565b610540848484840360006105a5565b50505050565b6001600160a01b03831661057057604051634b637e8f60e11b815260006004820152602401610470565b6001600160a01b03821661059a5760405163ec442f0560e01b815260006004820152602401610470565b6104c383838361067a565b6001600160a01b0384166105cf5760405163e602df0560e01b815260006004820152602401610470565b6001600160a01b0383166105f957604051634a1406b160e11b815260006004820152602401610470565b6001600160a01b038085166000908152600160209081526040808320938716835292905220829055801561054057826001600160a01b0316846001600160a01b03167f8c5be1e5ebec7d5bd14f71427d1e84f3dd0314c0f7b2291e5b200ac8c7c3b9258460405161066c91815260200190565b60405180910390a350505050565b6001600160a01b0383166106a557806002600082825461069a9190610904565b909155506107179050565b6001600160a01b038316600090815260208190526040902054818110156106f85760405163391434e360e21b81526001600160a01b03851660048201526024810182905260448101839052606401610470565b6001600160a01b03841660009081526020819052604090209082900390555b6001600160a01b03821661073357600280548290039055610752565b6001600160a01b03821660009081526020819052604090208054820190555b816001600160a01b0316836001600160a01b03167fddf252ad1be2c89b69c2b068fc378daa952ba7f163c4a11628f55a4df523b3ef8360405161079791815260200190565b60405180910390a3505050565b60006020808352835180602085015260005b818110156107d2578581018301518582016040015282016107b6565b506000604082860101526040601f19601f8301168501019250505092915050565b80356001600160a01b038116811461080a57600080fd5b919050565b6000806040838503121561082257600080fd5b61082b836107f3565b946020939093013593505050565b60008060006060848603121561084e57600080fd5b610857846107f3565b9250610865602085016107f3565b9150604084013590509250925092565b60006020828403121561088757600080fd5b610890826107f3565b9392505050565b600080604083850312156108aa57600080fd5b6108b3836107f3565b91506108c1602084016107f3565b90509250929050565b600181811c908216806108de57607f821691505b6020821081036108fe57634e487b7160e01b600052602260045260246000fd5b50919050565b8082018082111561032c57634e487b7160e01b600052601160045260246000fdfea2646970667358221220fae2df07702e88d542373b543647b0f09854aa8378a617c2fde8cbfd260c8e6264736f6c63430008180033a26469706673582212201360680220e7d44f1ebe7762913c5e0bb3d151c88e2771e2e5e662e4646681e564736f6c63430008180033",
  "linkReferences": {},
  "deployedLinkReferences": {}
}